{
  "_format": "hh-sol-artifact-1",
  "contractName": "DeNFT",
  "sourceName": "contracts/DeNFT.sol",
  "abi": [
    {
      "inputs": [],
      "stateMutability": "nonpayable",
      "type": "constructor"
    },
    {
      "anonymous": false,
      "inputs": [
        {
          "indexed": true,
          "internalType": "address",
          "name": "owner",
          "type": "address"
        },
        {
          "indexed": true,
          "internalType": "address",
          "name": "approved",
          "type": "address"
        },
        {
          "indexed": true,
          "internalType": "uint256",
          "name": "tokenId",
          "type": "uint256"
        }
      ],
      "name": "Approval",
      "type": "event"
    },
    {
      "anonymous": false,
      "inputs": [
        {
          "indexed": true,
          "internalType": "address",
          "name": "owner",
          "type": "address"
        },
        {
          "indexed": true,
          "internalType": "address",
          "name": "operator",
          "type": "address"
        },
        {
          "indexed": false,
          "internalType": "bool",
          "name": "approved",
          "type": "bool"
        }
      ],
      "name": "ApprovalForAll",
      "type": "event"
    },
    {
      "anonymous": false,
      "inputs": [
        {
          "indexed": true,
          "internalType": "address",
          "name": "previousOwner",
          "type": "address"
        },
        {
          "indexed": true,
          "internalType": "address",
          "name": "newOwner",
          "type": "address"
        }
      ],
      "name": "OwnershipTransferred",
      "type": "event"
    },
    {
      "anonymous": false,
      "inputs": [
        {
          "indexed": true,
          "internalType": "address",
          "name": "from",
          "type": "address"
        },
        {
          "indexed": true,
          "internalType": "address",
          "name": "to",
          "type": "address"
        },
        {
          "indexed": true,
          "internalType": "uint256",
          "name": "tokenId",
          "type": "uint256"
        }
      ],
      "name": "Transfer",
      "type": "event"
    },
    {
      "inputs": [
        {
          "internalType": "address",
          "name": "to",
          "type": "address"
        },
        {
          "internalType": "uint256",
          "name": "tokenId",
          "type": "uint256"
        }
      ],
      "name": "approve",
      "outputs": [],
      "stateMutability": "nonpayable",
      "type": "function"
    },
    {
      "inputs": [
        {
          "internalType": "address",
          "name": "owner",
          "type": "address"
        }
      ],
      "name": "balanceOf",
      "outputs": [
        {
          "internalType": "uint256",
          "name": "",
          "type": "uint256"
        }
      ],
      "stateMutability": "view",
      "type": "function"
    },
    {
      "inputs": [
        {
          "internalType": "uint256",
          "name": "tokenId",
          "type": "uint256"
        }
      ],
      "name": "getApproved",
      "outputs": [
        {
          "internalType": "address",
          "name": "",
          "type": "address"
        }
      ],
      "stateMutability": "view",
      "type": "function"
    },
    {
      "inputs": [
        {
          "internalType": "address",
          "name": "owner",
          "type": "address"
        },
        {
          "internalType": "address",
          "name": "operator",
          "type": "address"
        }
      ],
      "name": "isApprovedForAll",
      "outputs": [
        {
          "internalType": "bool",
          "name": "",
          "type": "bool"
        }
      ],
      "stateMutability": "view",
      "type": "function"
    },
    {
      "inputs": [
        {
          "internalType": "string",
          "name": "_tokenUri",
          "type": "string"
        }
      ],
      "name": "mintDeNFT",
      "outputs": [],
      "stateMutability": "payable",
      "type": "function"
    },
    {
      "inputs": [],
      "name": "name",
      "outputs": [
        {
          "internalType": "string",
          "name": "",
          "type": "string"
        }
      ],
      "stateMutability": "view",
      "type": "function"
    },
    {
      "inputs": [],
      "name": "owner",
      "outputs": [
        {
          "internalType": "address",
          "name": "",
          "type": "address"
        }
      ],
      "stateMutability": "view",
      "type": "function"
    },
    {
      "inputs": [
        {
          "internalType": "uint256",
          "name": "tokenId",
          "type": "uint256"
        }
      ],
      "name": "ownerOf",
      "outputs": [
        {
          "internalType": "address",
          "name": "",
          "type": "address"
        }
      ],
      "stateMutability": "view",
      "type": "function"
    },
    {
      "inputs": [],
      "name": "renounceOwnership",
      "outputs": [],
      "stateMutability": "nonpayable",
      "type": "function"
    },
    {
      "inputs": [
        {
          "internalType": "address",
          "name": "from",
          "type": "address"
        },
        {
          "internalType": "address",
          "name": "to",
          "type": "address"
        },
        {
          "internalType": "uint256",
          "name": "tokenId",
          "type": "uint256"
        }
      ],
      "name": "safeTransferFrom",
      "outputs": [],
      "stateMutability": "nonpayable",
      "type": "function"
    },
    {
      "inputs": [
        {
          "internalType": "address",
          "name": "from",
          "type": "address"
        },
        {
          "internalType": "address",
          "name": "to",
          "type": "address"
        },
        {
          "internalType": "uint256",
          "name": "tokenId",
          "type": "uint256"
        },
        {
          "internalType": "bytes",
          "name": "_data",
          "type": "bytes"
        }
      ],
      "name": "safeTransferFrom",
      "outputs": [],
      "stateMutability": "nonpayable",
      "type": "function"
    },
    {
      "inputs": [
        {
          "internalType": "address",
          "name": "operator",
          "type": "address"
        },
        {
          "internalType": "bool",
          "name": "approved",
          "type": "bool"
        }
      ],
      "name": "setApprovalForAll",
      "outputs": [],
      "stateMutability": "nonpayable",
      "type": "function"
    },
    {
      "inputs": [
        {
          "internalType": "bytes4",
          "name": "interfaceId",
          "type": "bytes4"
        }
      ],
      "name": "supportsInterface",
      "outputs": [
        {
          "internalType": "bool",
          "name": "",
          "type": "bool"
        }
      ],
      "stateMutability": "view",
      "type": "function"
    },
    {
      "inputs": [],
      "name": "symbol",
      "outputs": [
        {
          "internalType": "string",
          "name": "",
          "type": "string"
        }
      ],
      "stateMutability": "view",
      "type": "function"
    },
    {
      "inputs": [
        {
          "internalType": "uint256",
          "name": "index",
          "type": "uint256"
        }
      ],
      "name": "tokenByIndex",
      "outputs": [
        {
          "internalType": "uint256",
          "name": "",
          "type": "uint256"
        }
      ],
      "stateMutability": "view",
      "type": "function"
    },
    {
      "inputs": [
        {
          "internalType": "address",
          "name": "owner",
          "type": "address"
        },
        {
          "internalType": "uint256",
          "name": "index",
          "type": "uint256"
        }
      ],
      "name": "tokenOfOwnerByIndex",
      "outputs": [
        {
          "internalType": "uint256",
          "name": "",
          "type": "uint256"
        }
      ],
      "stateMutability": "view",
      "type": "function"
    },
    {
      "inputs": [
        {
          "internalType": "uint256",
          "name": "tokenId",
          "type": "uint256"
        }
      ],
      "name": "tokenURI",
      "outputs": [
        {
          "internalType": "string",
          "name": "",
          "type": "string"
        }
      ],
      "stateMutability": "view",
      "type": "function"
    },
    {
      "inputs": [
        {
          "internalType": "address",
          "name": "user",
          "type": "address"
        },
        {
          "internalType": "uint256",
          "name": "cursor",
          "type": "uint256"
        },
        {
          "internalType": "uint256",
          "name": "size",
          "type": "uint256"
        }
      ],
      "name": "tokensOfOwnerBySize",
      "outputs": [
        {
          "internalType": "uint256[]",
          "name": "",
          "type": "uint256[]"
        },
        {
          "internalType": "uint256",
          "name": "",
          "type": "uint256"
        }
      ],
      "stateMutability": "view",
      "type": "function"
    },
    {
      "inputs": [],
      "name": "totalSupply",
      "outputs": [
        {
          "internalType": "uint256",
          "name": "",
          "type": "uint256"
        }
      ],
      "stateMutability": "view",
      "type": "function"
    },
    {
      "inputs": [],
      "name": "totalTokens",
      "outputs": [
        {
          "internalType": "uint256",
          "name": "",
          "type": "uint256"
        }
      ],
      "stateMutability": "view",
      "type": "function"
    },
    {
      "inputs": [
        {
          "internalType": "address",
          "name": "to",
          "type": "address"
        },
        {
          "internalType": "uint256",
          "name": "tokenID",
          "type": "uint256"
        }
      ],
      "name": "transfer",
      "outputs": [],
      "stateMutability": "payable",
      "type": "function"
    },
    {
      "inputs": [
        {
          "internalType": "address",
          "name": "from",
          "type": "address"
        },
        {
          "internalType": "address",
          "name": "to",
          "type": "address"
        },
        {
          "internalType": "uint256",
          "name": "tokenId",
          "type": "uint256"
        }
      ],
      "name": "transferFrom",
      "outputs": [],
      "stateMutability": "nonpayable",
      "type": "function"
    },
    {
      "inputs": [
        {
          "internalType": "address",
          "name": "newOwner",
          "type": "address"
        }
      ],
      "name": "transferOwnership",
      "outputs": [],
      "stateMutability": "nonpayable",
      "type": "function"
    }
  ],
  "bytecode": "0x60806040523480156200001157600080fd5b506040518060400160405280600581526020017f44654e46540000000000000000000000000000000000000000000000000000008152506040518060400160405280600481526020017f444e465400000000000000000000000000000000000000000000000000000000815250816000908051906020019062000096929190620001a6565b508060019080519060200190620000af929190620001a6565b505050620000d2620000c6620000d860201b60201c565b620000e060201b60201c565b620002bb565b600033905090565b6000600a60009054906101000a900473ffffffffffffffffffffffffffffffffffffffff16905081600a60006101000a81548173ffffffffffffffffffffffffffffffffffffffff021916908373ffffffffffffffffffffffffffffffffffffffff1602179055508173ffffffffffffffffffffffffffffffffffffffff168173ffffffffffffffffffffffffffffffffffffffff167f8be0079c531659141344cd1fd0a4f28419497f9722a3daafe3b4186f6b6457e060405160405180910390a35050565b828054620001b49062000256565b90600052602060002090601f016020900481019282620001d8576000855562000224565b82601f10620001f357805160ff191683800117855562000224565b8280016001018555821562000224579182015b828111156200022357825182559160200191906001019062000206565b5b50905062000233919062000237565b5090565b5b808211156200025257600081600090555060010162000238565b5090565b600060028204905060018216806200026f57607f821691505b602082108114156200028657620002856200028c565b5b50919050565b7f4e487b7100000000000000000000000000000000000000000000000000000000600052602260045260246000fd5b613b8480620002cb6000396000f3fe6080604052600436106101405760003560e01c806370a08231116100b6578063a22cb4651161006f578063a22cb46514610476578063a9059cbb1461049f578063b88d4fde146104bb578063c87b56dd146104e4578063e985e9c514610521578063f2fde38b1461055e57610140565b806370a0823114610363578063715018a6146103a05780637e1c0c09146103b7578063854ec1af146103e25780638da5cb5b1461042057806395d89b411461044b57610140565b806318160ddd1161010857806318160ddd1461022f57806323b872dd1461025a5780632f745c591461028357806342842e0e146102c05780634f6ccce7146102e95780636352211e1461032657610140565b806301ffc9a71461014557806306fdde0314610182578063081812fc146101ad578063095ea7b3146101ea57806317ef6e9014610213575b600080fd5b34801561015157600080fd5b5061016c600480360381019061016791906128e0565b610587565b6040516101799190612e68565b60405180910390f35b34801561018e57600080fd5b50610197610601565b6040516101a49190612e83565b60405180910390f35b3480156101b957600080fd5b506101d460048036038101906101cf9190612973565b610693565b6040516101e19190612dd1565b60405180910390f35b3480156101f657600080fd5b50610211600480360381019061020c9190612855565b610718565b005b61022d60048036038101906102289190612932565b610830565b005b34801561023b57600080fd5b50610244610866565b6040516102519190613125565b60405180910390f35b34801561026657600080fd5b50610281600480360381019061027c919061274f565b610873565b005b34801561028f57600080fd5b506102aa60048036038101906102a59190612855565b6108d3565b6040516102b79190613125565b60405180910390f35b3480156102cc57600080fd5b506102e760048036038101906102e2919061274f565b610978565b005b3480156102f557600080fd5b50610310600480360381019061030b9190612973565b610998565b60405161031d9190613125565b60405180910390f35b34801561033257600080fd5b5061034d60048036038101906103489190612973565b610a2f565b60405161035a9190612dd1565b60405180910390f35b34801561036f57600080fd5b5061038a600480360381019061038591906126ea565b610ae1565b6040516103979190613125565b60405180910390f35b3480156103ac57600080fd5b506103b5610b99565b005b3480156103c357600080fd5b506103cc610c21565b6040516103d99190613125565b60405180910390f35b3480156103ee57600080fd5b5061040960048036038101906104049190612891565b610c32565b604051610417929190612e38565b60405180910390f35b34801561042c57600080fd5b50610435610d73565b6040516104429190612dd1565b60405180910390f35b34801561045757600080fd5b50610460610d9d565b60405161046d9190612e83565b60405180910390f35b34801561048257600080fd5b5061049d60048036038101906104989190612819565b610e2f565b005b6104b960048036038101906104b49190612855565b610e45565b005b3480156104c757600080fd5b506104e260048036038101906104dd919061279e565b610e54565b005b3480156104f057600080fd5b5061050b60048036038101906105069190612973565b610eb6565b6040516105189190612e83565b60405180910390f35b34801561052d57600080fd5b5061054860048036038101906105439190612713565b611008565b6040516105559190612e68565b60405180910390f35b34801561056a57600080fd5b50610585600480360381019061058091906126ea565b61109c565b005b60007f780e9d63000000000000000000000000000000000000000000000000000000007bffffffffffffffffffffffffffffffffffffffffffffffffffffffff1916827bffffffffffffffffffffffffffffffffffffffffffffffffffffffff191614806105fa57506105f982611194565b5b9050919050565b606060008054610610906133b4565b80601f016020809104026020016040519081016040528092919081815260200182805461063c906133b4565b80156106895780601f1061065e57610100808354040283529160200191610689565b820191906000526020600020905b81548152906001019060200180831161066c57829003601f168201915b5050505050905090565b600061069e82611276565b6106dd576040517f08c379a00000000000000000000000000000000000000000000000000000000081526004016106d490613065565b60405180910390fd5b6004600083815260200190815260200160002060009054906101000a900473ffffffffffffffffffffffffffffffffffffffff169050919050565b600061072382610a2f565b90508073ffffffffffffffffffffffffffffffffffffffff168373ffffffffffffffffffffffffffffffffffffffff161415610794576040517f08c379a000000000000000000000000000000000000000000000000000000000815260040161078b906130c5565b60405180910390fd5b8073ffffffffffffffffffffffffffffffffffffffff166107b36112e2565b73ffffffffffffffffffffffffffffffffffffffff1614806107e257506107e1816107dc6112e2565b611008565b5b610821576040517f08c379a000000000000000000000000000000000000000000000000000000000815260040161081890612fa5565b60405180910390fd5b61082b83836112ea565b505050565b600061083c600b6113a3565b9050600082905061084d33836113b1565b610857828261158b565b610861600b6115ff565b505050565b6000600880549050905090565b61088461087e6112e2565b82611615565b6108c3576040517f08c379a00000000000000000000000000000000000000000000000000000000081526004016108ba906130e5565b60405180910390fd5b6108ce8383836116f3565b505050565b60006108de83610ae1565b821061091f576040517f08c379a000000000000000000000000000000000000000000000000000000000815260040161091690612ea5565b60405180910390fd5b600660008473ffffffffffffffffffffffffffffffffffffffff1673ffffffffffffffffffffffffffffffffffffffff168152602001908152602001600020600083815260200190815260200160002054905092915050565b61099383838360405180602001604052806000815250610e54565b505050565b60006109a2610866565b82106109e3576040517f08c379a00000000000000000000000000000000000000000000000000000000081526004016109da90613105565b60405180910390fd5b60088281548110610a1d577f4e487b7100000000000000000000000000000000000000000000000000000000600052603260045260246000fd5b90600052602060002001549050919050565b6000806002600084815260200190815260200160002060009054906101000a900473ffffffffffffffffffffffffffffffffffffffff169050600073ffffffffffffffffffffffffffffffffffffffff168173ffffffffffffffffffffffffffffffffffffffff161415610ad8576040517f08c379a0000000000000000000000000000000000000000000000000000000008152600401610acf90612fe5565b60405180910390fd5b80915050919050565b60008073ffffffffffffffffffffffffffffffffffffffff168273ffffffffffffffffffffffffffffffffffffffff161415610b52576040517f08c379a0000000000000000000000000000000000000000000000000000000008152600401610b4990612fc5565b60405180910390fd5b600360008373ffffffffffffffffffffffffffffffffffffffff1673ffffffffffffffffffffffffffffffffffffffff168152602001908152602001600020549050919050565b610ba16112e2565b73ffffffffffffffffffffffffffffffffffffffff16610bbf610d73565b73ffffffffffffffffffffffffffffffffffffffff1614610c15576040517f08c379a0000000000000000000000000000000000000000000000000000000008152600401610c0c90613085565b60405180910390fd5b610c1f600061195a565b565b6000610c2d600b6113a3565b905090565b606060008083905084610c4487610ae1565b610c4e91906132ca565b811115610c6c5784610c5f87610ae1565b610c6991906132ca565b90505b60008167ffffffffffffffff811115610cae577f4e487b7100000000000000000000000000000000000000000000000000000000600052604160045260246000fd5b604051908082528060200260200182016040528015610cdc5781602001602082028036833780820191505090505b50905060005b82811015610d5757610cff888289610cfa9190613243565b6108d3565b828281518110610d38577f4e487b7100000000000000000000000000000000000000000000000000000000600052603260045260246000fd5b6020026020010181815250508080610d4f90613417565b915050610ce2565b50808287610d659190613243565b935093505050935093915050565b6000600a60009054906101000a900473ffffffffffffffffffffffffffffffffffffffff16905090565b606060018054610dac906133b4565b80601f0160208091040260200160405190810160405280929190818152602001828054610dd8906133b4565b8015610e255780601f10610dfa57610100808354040283529160200191610e25565b820191906000526020600020905b815481529060010190602001808311610e0857829003601f168201915b5050505050905090565b610e41610e3a6112e2565b8383611a20565b5050565b610e503383836116f3565b5050565b610e65610e5f6112e2565b83611615565b610ea4576040517f08c379a0000000000000000000000000000000000000000000000000000000008152600401610e9b906130e5565b60405180910390fd5b610eb084848484611b8d565b50505050565b6060610ec182611276565b610f00576040517f08c379a0000000000000000000000000000000000000000000000000000000008152600401610ef790613045565b60405180910390fd5b6000600c60008481526020019081526020016000208054610f20906133b4565b80601f0160208091040260200160405190810160405280929190818152602001828054610f4c906133b4565b8015610f995780601f10610f6e57610100808354040283529160200191610f99565b820191906000526020600020905b815481529060010190602001808311610f7c57829003601f168201915b505050505090506000610faa611be9565b9050600081511415610fc0578192505050611003565b600082511115610ff5578082604051602001610fdd929190612dad565b60405160208183030381529060405292505050611003565b610ffe84611c00565b925050505b919050565b6000600560008473ffffffffffffffffffffffffffffffffffffffff1673ffffffffffffffffffffffffffffffffffffffff16815260200190815260200160002060008373ffffffffffffffffffffffffffffffffffffffff1673ffffffffffffffffffffffffffffffffffffffff16815260200190815260200160002060009054906101000a900460ff16905092915050565b6110a46112e2565b73ffffffffffffffffffffffffffffffffffffffff166110c2610d73565b73ffffffffffffffffffffffffffffffffffffffff1614611118576040517f08c379a000000000000000000000000000000000000000000000000000000000815260040161110f90613085565b60405180910390fd5b600073ffffffffffffffffffffffffffffffffffffffff168173ffffffffffffffffffffffffffffffffffffffff161415611188576040517f08c379a000000000000000000000000000000000000000000000000000000000815260040161117f90612ee5565b60405180910390fd5b6111918161195a565b50565b60007f80ac58cd000000000000000000000000000000000000000000000000000000007bffffffffffffffffffffffffffffffffffffffffffffffffffffffff1916827bffffffffffffffffffffffffffffffffffffffffffffffffffffffff1916148061125f57507f5b5e139f000000000000000000000000000000000000000000000000000000007bffffffffffffffffffffffffffffffffffffffffffffffffffffffff1916827bffffffffffffffffffffffffffffffffffffffffffffffffffffffff1916145b8061126f575061126e82611ca7565b5b9050919050565b60008073ffffffffffffffffffffffffffffffffffffffff166002600084815260200190815260200160002060009054906101000a900473ffffffffffffffffffffffffffffffffffffffff1673ffffffffffffffffffffffffffffffffffffffff1614159050919050565b600033905090565b816004600083815260200190815260200160002060006101000a81548173ffffffffffffffffffffffffffffffffffffffff021916908373ffffffffffffffffffffffffffffffffffffffff160217905550808273ffffffffffffffffffffffffffffffffffffffff1661135d83610a2f565b73ffffffffffffffffffffffffffffffffffffffff167f8c5be1e5ebec7d5bd14f71427d1e84f3dd0314c0f7b2291e5b200ac8c7c3b92560405160405180910390a45050565b600081600001549050919050565b600073ffffffffffffffffffffffffffffffffffffffff168273ffffffffffffffffffffffffffffffffffffffff161415611421576040517f08c379a000000000000000000000000000000000000000000000000000000000815260040161141890613025565b60405180910390fd5b61142a81611276565b1561146a576040517f08c379a000000000000000000000000000000000000000000000000000000000815260040161146190612f25565b60405180910390fd5b61147660008383611d11565b6001600360008473ffffffffffffffffffffffffffffffffffffffff1673ffffffffffffffffffffffffffffffffffffffff16815260200190815260200160002060008282546114c69190613243565b92505081905550816002600083815260200190815260200160002060006101000a81548173ffffffffffffffffffffffffffffffffffffffff021916908373ffffffffffffffffffffffffffffffffffffffff160217905550808273ffffffffffffffffffffffffffffffffffffffff16600073ffffffffffffffffffffffffffffffffffffffff167fddf252ad1be2c89b69c2b068fc378daa952ba7f163c4a11628f55a4df523b3ef60405160405180910390a461158760008383611e25565b5050565b61159482611276565b6115d3576040517f08c379a00000000000000000000000000000000000000000000000000000000081526004016115ca90613005565b60405180910390fd5b80600c600084815260200190815260200160002090805190602001906115fa92919061250e565b505050565b6001816000016000828254019250508190555050565b600061162082611276565b61165f576040517f08c379a000000000000000000000000000000000000000000000000000000000815260040161165690612f85565b60405180910390fd5b600061166a83610a2f565b90508073ffffffffffffffffffffffffffffffffffffffff168473ffffffffffffffffffffffffffffffffffffffff1614806116ac57506116ab8185611008565b5b806116ea57508373ffffffffffffffffffffffffffffffffffffffff166116d284610693565b73ffffffffffffffffffffffffffffffffffffffff16145b91505092915050565b8273ffffffffffffffffffffffffffffffffffffffff1661171382610a2f565b73ffffffffffffffffffffffffffffffffffffffff1614611769576040517f08c379a000000000000000000000000000000000000000000000000000000000815260040161176090612f05565b60405180910390fd5b600073ffffffffffffffffffffffffffffffffffffffff168273ffffffffffffffffffffffffffffffffffffffff1614156117d9576040517f08c379a00000000000000000000000000000000000000000000000000000000081526004016117d090612f45565b60405180910390fd5b6117e4838383611d11565b6117ef6000826112ea565b6001600360008573ffffffffffffffffffffffffffffffffffffffff1673ffffffffffffffffffffffffffffffffffffffff168152602001908152602001600020600082825461183f91906132ca565b925050819055506001600360008473ffffffffffffffffffffffffffffffffffffffff1673ffffffffffffffffffffffffffffffffffffffff16815260200190815260200160002060008282546118969190613243565b92505081905550816002600083815260200190815260200160002060006101000a81548173ffffffffffffffffffffffffffffffffffffffff021916908373ffffffffffffffffffffffffffffffffffffffff160217905550808273ffffffffffffffffffffffffffffffffffffffff168473ffffffffffffffffffffffffffffffffffffffff167fddf252ad1be2c89b69c2b068fc378daa952ba7f163c4a11628f55a4df523b3ef60405160405180910390a4611955838383611e25565b505050565b6000600a60009054906101000a900473ffffffffffffffffffffffffffffffffffffffff16905081600a60006101000a81548173ffffffffffffffffffffffffffffffffffffffff021916908373ffffffffffffffffffffffffffffffffffffffff1602179055508173ffffffffffffffffffffffffffffffffffffffff168173ffffffffffffffffffffffffffffffffffffffff167f8be0079c531659141344cd1fd0a4f28419497f9722a3daafe3b4186f6b6457e060405160405180910390a35050565b8173ffffffffffffffffffffffffffffffffffffffff168373ffffffffffffffffffffffffffffffffffffffff161415611a8f576040517f08c379a0000000000000000000000000000000000000000000000000000000008152600401611a8690612f65565b60405180910390fd5b80600560008573ffffffffffffffffffffffffffffffffffffffff1673ffffffffffffffffffffffffffffffffffffffff16815260200190815260200160002060008473ffffffffffffffffffffffffffffffffffffffff1673ffffffffffffffffffffffffffffffffffffffff16815260200190815260200160002060006101000a81548160ff0219169083151502179055508173ffffffffffffffffffffffffffffffffffffffff168373ffffffffffffffffffffffffffffffffffffffff167f17307eab39ab6107e8899845ad3d59bd9653f200f220920489ca2b5937696c3183604051611b809190612e68565b60405180910390a3505050565b611b988484846116f3565b611ba484848484611e2a565b611be3576040517f08c379a0000000000000000000000000000000000000000000000000000000008152600401611bda90612ec5565b60405180910390fd5b50505050565b606060405180602001604052806000815250905090565b6060611c0b82611276565b611c4a576040517f08c379a0000000000000000000000000000000000000000000000000000000008152600401611c41906130a5565b60405180910390fd5b6000611c54611be9565b90506000815111611c745760405180602001604052806000815250611c9f565b80611c7e84611fc1565b604051602001611c8f929190612dad565b6040516020818303038152906040525b915050919050565b60007f01ffc9a7000000000000000000000000000000000000000000000000000000007bffffffffffffffffffffffffffffffffffffffffffffffffffffffff1916827bffffffffffffffffffffffffffffffffffffffffffffffffffffffff1916149050919050565b611d1c83838361216e565b600073ffffffffffffffffffffffffffffffffffffffff168373ffffffffffffffffffffffffffffffffffffffff161415611d5f57611d5a81612173565b611d9e565b8173ffffffffffffffffffffffffffffffffffffffff168373ffffffffffffffffffffffffffffffffffffffff1614611d9d57611d9c83826121bc565b5b5b600073ffffffffffffffffffffffffffffffffffffffff168273ffffffffffffffffffffffffffffffffffffffff161415611de157611ddc81612329565b611e20565b8273ffffffffffffffffffffffffffffffffffffffff168273ffffffffffffffffffffffffffffffffffffffff1614611e1f57611e1e828261246c565b5b5b505050565b505050565b6000611e4b8473ffffffffffffffffffffffffffffffffffffffff166124eb565b15611fb4578373ffffffffffffffffffffffffffffffffffffffff1663150b7a02611e746112e2565b8786866040518563ffffffff1660e01b8152600401611e969493929190612dec565b602060405180830381600087803b158015611eb057600080fd5b505af1925050508015611ee157506040513d601f19601f82011682018060405250810190611ede9190612909565b60015b611f64573d8060008114611f11576040519150601f19603f3d011682016040523d82523d6000602084013e611f16565b606091505b50600081511415611f5c576040517f08c379a0000000000000000000000000000000000000000000000000000000008152600401611f5390612ec5565b60405180910390fd5b805181602001fd5b63150b7a0260e01b7bffffffffffffffffffffffffffffffffffffffffffffffffffffffff1916817bffffffffffffffffffffffffffffffffffffffffffffffffffffffff191614915050611fb9565b600190505b949350505050565b60606000821415612009576040518060400160405280600181526020017f30000000000000000000000000000000000000000000000000000000000000008152509050612169565b600082905060005b6000821461203b57808061202490613417565b915050600a826120349190613299565b9150612011565b60008167ffffffffffffffff81111561207d577f4e487b7100000000000000000000000000000000000000000000000000000000600052604160045260246000fd5b6040519080825280601f01601f1916602001820160405280156120af5781602001600182028036833780820191505090505b5090505b60008514612162576001826120c891906132ca565b9150600a856120d79190613460565b60306120e39190613243565b60f81b81838151811061211f577f4e487b7100000000000000000000000000000000000000000000000000000000600052603260045260246000fd5b60200101907effffffffffffffffffffffffffffffffffffffffffffffffffffffffffffff1916908160001a905350600a8561215b9190613299565b94506120b3565b8093505050505b919050565b505050565b6008805490506009600083815260200190815260200160002081905550600881908060018154018082558091505060019003906000526020600020016000909190919091505550565b600060016121c984610ae1565b6121d391906132ca565b90506000600760008481526020019081526020016000205490508181146122b8576000600660008673ffffffffffffffffffffffffffffffffffffffff1673ffffffffffffffffffffffffffffffffffffffff168152602001908152602001600020600084815260200190815260200160002054905080600660008773ffffffffffffffffffffffffffffffffffffffff1673ffffffffffffffffffffffffffffffffffffffff168152602001908152602001600020600084815260200190815260200160002081905550816007600083815260200190815260200160002081905550505b6007600084815260200190815260200160002060009055600660008573ffffffffffffffffffffffffffffffffffffffff1673ffffffffffffffffffffffffffffffffffffffff16815260200190815260200160002060008381526020019081526020016000206000905550505050565b6000600160088054905061233d91906132ca565b9050600060096000848152602001908152602001600020549050600060088381548110612393577f4e487b7100000000000000000000000000000000000000000000000000000000600052603260045260246000fd5b9060005260206000200154905080600883815481106123db577f4e487b7100000000000000000000000000000000000000000000000000000000600052603260045260246000fd5b906000526020600020018190555081600960008381526020019081526020016000208190555060096000858152602001908152602001600020600090556008805480612450577f4e487b7100000000000000000000000000000000000000000000000000000000600052603160045260246000fd5b6001900381819060005260206000200160009055905550505050565b600061247783610ae1565b905081600660008573ffffffffffffffffffffffffffffffffffffffff1673ffffffffffffffffffffffffffffffffffffffff168152602001908152602001600020600083815260200190815260200160002081905550806007600084815260200190815260200160002081905550505050565b6000808273ffffffffffffffffffffffffffffffffffffffff163b119050919050565b82805461251a906133b4565b90600052602060002090601f01602090048101928261253c5760008555612583565b82601f1061255557805160ff1916838001178555612583565b82800160010185558215612583579182015b82811115612582578251825591602001919060010190612567565b5b5090506125909190612594565b5090565b5b808211156125ad576000816000905550600101612595565b5090565b60006125c46125bf84613165565b613140565b9050828152602081018484840111156125dc57600080fd5b6125e7848285613372565b509392505050565b60006126026125fd84613196565b613140565b90508281526020810184848401111561261a57600080fd5b612625848285613372565b509392505050565b60008135905061263c81613af2565b92915050565b60008135905061265181613b09565b92915050565b60008135905061266681613b20565b92915050565b60008151905061267b81613b20565b92915050565b600082601f83011261269257600080fd5b81356126a28482602086016125b1565b91505092915050565b600082601f8301126126bc57600080fd5b81356126cc8482602086016125ef565b91505092915050565b6000813590506126e481613b37565b92915050565b6000602082840312156126fc57600080fd5b600061270a8482850161262d565b91505092915050565b6000806040838503121561272657600080fd5b60006127348582860161262d565b92505060206127458582860161262d565b9150509250929050565b60008060006060848603121561276457600080fd5b60006127728682870161262d565b93505060206127838682870161262d565b9250506040612794868287016126d5565b9150509250925092565b600080600080608085870312156127b457600080fd5b60006127c28782880161262d565b94505060206127d38782880161262d565b93505060406127e4878288016126d5565b925050606085013567ffffffffffffffff81111561280157600080fd5b61280d87828801612681565b91505092959194509250565b6000806040838503121561282c57600080fd5b600061283a8582860161262d565b925050602061284b85828601612642565b9150509250929050565b6000806040838503121561286857600080fd5b60006128768582860161262d565b9250506020612887858286016126d5565b9150509250929050565b6000806000606084860312156128a657600080fd5b60006128b48682870161262d565b93505060206128c5868287016126d5565b92505060406128d6868287016126d5565b9150509250925092565b6000602082840312156128f257600080fd5b600061290084828501612657565b91505092915050565b60006020828403121561291b57600080fd5b60006129298482850161266c565b91505092915050565b60006020828403121561294457600080fd5b600082013567ffffffffffffffff81111561295e57600080fd5b61296a848285016126ab565b91505092915050565b60006020828403121561298557600080fd5b6000612993848285016126d5565b91505092915050565b60006129a88383612d8f565b60208301905092915050565b6129bd816132fe565b82525050565b60006129ce826131d7565b6129d88185613205565b93506129e3836131c7565b8060005b83811015612a145781516129fb888261299c565b9750612a06836131f8565b9250506001810190506129e7565b5085935050505092915050565b612a2a81613310565b82525050565b6000612a3b826131e2565b612a458185613216565b9350612a55818560208601613381565b612a5e8161354d565b840191505092915050565b6000612a74826131ed565b612a7e8185613227565b9350612a8e818560208601613381565b612a978161354d565b840191505092915050565b6000612aad826131ed565b612ab78185613238565b9350612ac7818560208601613381565b80840191505092915050565b6000612ae0602b83613227565b9150612aeb8261355e565b604082019050919050565b6000612b03603283613227565b9150612b0e826135ad565b604082019050919050565b6000612b26602683613227565b9150612b31826135fc565b604082019050919050565b6000612b49602583613227565b9150612b548261364b565b604082019050919050565b6000612b6c601c83613227565b9150612b778261369a565b602082019050919050565b6000612b8f602483613227565b9150612b9a826136c3565b604082019050919050565b6000612bb2601983613227565b9150612bbd82613712565b602082019050919050565b6000612bd5602c83613227565b9150612be08261373b565b604082019050919050565b6000612bf8603883613227565b9150612c038261378a565b604082019050919050565b6000612c1b602a83613227565b9150612c26826137d9565b604082019050919050565b6000612c3e602983613227565b9150612c4982613828565b604082019050919050565b6000612c61602e83613227565b9150612c6c82613877565b604082019050919050565b6000612c84602083613227565b9150612c8f826138c6565b602082019050919050565b6000612ca7603183613227565b9150612cb2826138ef565b604082019050919050565b6000612cca602c83613227565b9150612cd58261393e565b604082019050919050565b6000612ced602083613227565b9150612cf88261398d565b602082019050919050565b6000612d10602f83613227565b9150612d1b826139b6565b604082019050919050565b6000612d33602183613227565b9150612d3e82613a05565b604082019050919050565b6000612d56603183613227565b9150612d6182613a54565b604082019050919050565b6000612d79602c83613227565b9150612d8482613aa3565b604082019050919050565b612d9881613368565b82525050565b612da781613368565b82525050565b6000612db98285612aa2565b9150612dc58284612aa2565b91508190509392505050565b6000602082019050612de660008301846129b4565b92915050565b6000608082019050612e0160008301876129b4565b612e0e60208301866129b4565b612e1b6040830185612d9e565b8181036060830152612e2d8184612a30565b905095945050505050565b60006040820190508181036000830152612e5281856129c3565b9050612e616020830184612d9e565b9392505050565b6000602082019050612e7d6000830184612a21565b92915050565b60006020820190508181036000830152612e9d8184612a69565b905092915050565b60006020820190508181036000830152612ebe81612ad3565b9050919050565b60006020820190508181036000830152612ede81612af6565b9050919050565b60006020820190508181036000830152612efe81612b19565b9050919050565b60006020820190508181036000830152612f1e81612b3c565b9050919050565b60006020820190508181036000830152612f3e81612b5f565b9050919050565b60006020820190508181036000830152612f5e81612b82565b9050919050565b60006020820190508181036000830152612f7e81612ba5565b9050919050565b60006020820190508181036000830152612f9e81612bc8565b9050919050565b60006020820190508181036000830152612fbe81612beb565b9050919050565b60006020820190508181036000830152612fde81612c0e565b9050919050565b60006020820190508181036000830152612ffe81612c31565b9050919050565b6000602082019050818103600083015261301e81612c54565b9050919050565b6000602082019050818103600083015261303e81612c77565b9050919050565b6000602082019050818103600083015261305e81612c9a565b9050919050565b6000602082019050818103600083015261307e81612cbd565b9050919050565b6000602082019050818103600083015261309e81612ce0565b9050919050565b600060208201905081810360008301526130be81612d03565b9050919050565b600060208201905081810360008301526130de81612d26565b9050919050565b600060208201905081810360008301526130fe81612d49565b9050919050565b6000602082019050818103600083015261311e81612d6c565b9050919050565b600060208201905061313a6000830184612d9e565b92915050565b600061314a61315b565b905061315682826133e6565b919050565b6000604051905090565b600067ffffffffffffffff8211156131805761317f61351e565b5b6131898261354d565b9050602081019050919050565b600067ffffffffffffffff8211156131b1576131b061351e565b5b6131ba8261354d565b9050602081019050919050565b6000819050602082019050919050565b600081519050919050565b600081519050919050565b600081519050919050565b6000602082019050919050565b600082825260208201905092915050565b600082825260208201905092915050565b600082825260208201905092915050565b600081905092915050565b600061324e82613368565b915061325983613368565b9250827fffffffffffffffffffffffffffffffffffffffffffffffffffffffffffffffff0382111561328e5761328d613491565b5b828201905092915050565b60006132a482613368565b91506132af83613368565b9250826132bf576132be6134c0565b5b828204905092915050565b60006132d582613368565b91506132e083613368565b9250828210156132f3576132f2613491565b5b828203905092915050565b600061330982613348565b9050919050565b60008115159050919050565b60007fffffffff0000000000000000000000000000000000000000000000000000000082169050919050565b600073ffffffffffffffffffffffffffffffffffffffff82169050919050565b6000819050919050565b82818337600083830152505050565b60005b8381101561339f578082015181840152602081019050613384565b838111156133ae576000848401525b50505050565b600060028204905060018216806133cc57607f821691505b602082108114156133e0576133df6134ef565b5b50919050565b6133ef8261354d565b810181811067ffffffffffffffff8211171561340e5761340d61351e565b5b80604052505050565b600061342282613368565b91507fffffffffffffffffffffffffffffffffffffffffffffffffffffffffffffffff82141561345557613454613491565b5b600182019050919050565b600061346b82613368565b915061347683613368565b925082613486576134856134c0565b5b828206905092915050565b7f4e487b7100000000000000000000000000000000000000000000000000000000600052601160045260246000fd5b7f4e487b7100000000000000000000000000000000000000000000000000000000600052601260045260246000fd5b7f4e487b7100000000000000000000000000000000000000000000000000000000600052602260045260246000fd5b7f4e487b7100000000000000000000000000000000000000000000000000000000600052604160045260246000fd5b6000601f19601f8301169050919050565b7f455243373231456e756d657261626c653a206f776e657220696e646578206f7560008201527f74206f6620626f756e6473000000000000000000000000000000000000000000602082015250565b7f4552433732313a207472616e7366657220746f206e6f6e20455243373231526560008201527f63656976657220696d706c656d656e7465720000000000000000000000000000602082015250565b7f4f776e61626c653a206e6577206f776e657220697320746865207a65726f206160008201527f6464726573730000000000000000000000000000000000000000000000000000602082015250565b7f4552433732313a207472616e736665722066726f6d20696e636f72726563742060008201527f6f776e6572000000000000000000000000000000000000000000000000000000602082015250565b7f4552433732313a20746f6b656e20616c7265616479206d696e74656400000000600082015250565b7f4552433732313a207472616e7366657220746f20746865207a65726f2061646460008201527f7265737300000000000000000000000000000000000000000000000000000000602082015250565b7f4552433732313a20617070726f766520746f2063616c6c657200000000000000600082015250565b7f4552433732313a206f70657261746f7220717565727920666f72206e6f6e657860008201527f697374656e7420746f6b656e0000000000000000000000000000000000000000602082015250565b7f4552433732313a20617070726f76652063616c6c6572206973206e6f74206f7760008201527f6e6572206e6f7220617070726f76656420666f7220616c6c0000000000000000602082015250565b7f4552433732313a2062616c616e636520717565727920666f7220746865207a6560008201527f726f206164647265737300000000000000000000000000000000000000000000602082015250565b7f4552433732313a206f776e657220717565727920666f72206e6f6e657869737460008201527f656e7420746f6b656e0000000000000000000000000000000000000000000000602082015250565b7f45524337323155524953746f726167653a2055524920736574206f66206e6f6e60008201527f6578697374656e7420746f6b656e000000000000000000000000000000000000602082015250565b7f4552433732313a206d696e7420746f20746865207a65726f2061646472657373600082015250565b7f45524337323155524953746f726167653a2055524920717565727920666f722060008201527f6e6f6e6578697374656e7420746f6b656e000000000000000000000000000000602082015250565b7f4552433732313a20617070726f76656420717565727920666f72206e6f6e657860008201527f697374656e7420746f6b656e0000000000000000000000000000000000000000602082015250565b7f4f776e61626c653a2063616c6c6572206973206e6f7420746865206f776e6572600082015250565b7f4552433732314d657461646174613a2055524920717565727920666f72206e6f60008201527f6e6578697374656e7420746f6b656e0000000000000000000000000000000000602082015250565b7f4552433732313a20617070726f76616c20746f2063757272656e74206f776e6560008201527f7200000000000000000000000000000000000000000000000000000000000000602082015250565b7f4552433732313a207472616e736665722063616c6c6572206973206e6f74206f60008201527f776e6572206e6f7220617070726f766564000000000000000000000000000000602082015250565b7f455243373231456e756d657261626c653a20676c6f62616c20696e646578206f60008201527f7574206f6620626f756e64730000000000000000000000000000000000000000602082015250565b613afb816132fe565b8114613b0657600080fd5b50565b613b1281613310565b8114613b1d57600080fd5b50565b613b298161331c565b8114613b3457600080fd5b50565b613b4081613368565b8114613b4b57600080fd5b5056fea2646970667358221220e7818d063c29ad90660a540e8889f57b2ca4dccb96020e2ea9d3763b1d971b7a64736f6c63430008040033",
  "linkReferences": {},
  "deployedLinkReferences": {}
}