{
  "_format": "hh-sol-artifact-1",
  "contractName": "LendBorrow",
  "sourceName": "contracts/LendBorrow/LendBorrow.sol",
  "abi": [
    {
      "inputs": [
        {
          "internalType": "address",
          "name": "_usdc",
          "type": "address"
        }
      ],
      "stateMutability": "nonpayable",
      "type": "constructor"
    },
    {
      "anonymous": false,
      "inputs": [
        {
          "indexed": true,
          "internalType": "address",
          "name": "previousOwner",
          "type": "address"
        },
        {
          "indexed": true,
          "internalType": "address",
          "name": "newOwner",
          "type": "address"
        }
      ],
      "name": "OwnershipTransferred",
      "type": "event"
    },
    {
      "inputs": [
        {
          "internalType": "address",
          "name": "_collection",
          "type": "address"
        },
        {
          "internalType": "uint256",
          "name": "_tokenId",
          "type": "uint256"
        },
        {
          "internalType": "uint256",
          "name": "_price",
          "type": "uint256"
        }
      ],
      "name": "acceptAsk",
      "outputs": [],
      "stateMutability": "payable",
      "type": "function"
    },
    {
      "inputs": [
        {
          "internalType": "address",
          "name": "_collection",
          "type": "address"
        },
        {
          "internalType": "address",
          "name": "_creator",
          "type": "address"
        }
      ],
      "name": "addCollection",
      "outputs": [],
      "stateMutability": "nonpayable",
      "type": "function"
    },
    {
      "inputs": [
        {
          "internalType": "address",
          "name": "_collection",
          "type": "address"
        },
        {
          "internalType": "uint256",
          "name": "_tokenId",
          "type": "uint256"
        }
      ],
      "name": "cancelAskOrder",
      "outputs": [],
      "stateMutability": "nonpayable",
      "type": "function"
    },
    {
      "inputs": [
        {
          "internalType": "address",
          "name": "_collection",
          "type": "address"
        },
        {
          "internalType": "uint256",
          "name": "_tokenId",
          "type": "uint256"
        },
        {
          "internalType": "uint256",
          "name": "_askPrice",
          "type": "uint256"
        },
        {
          "internalType": "uint256",
          "name": "_repayInterestAmount",
          "type": "uint256"
        },
        {
          "internalType": "uint256",
          "name": "_timeInDays",
          "type": "uint256"
        }
      ],
      "name": "createLoanAskOrder",
      "outputs": [],
      "stateMutability": "nonpayable",
      "type": "function"
    },
    {
      "inputs": [
        {
          "internalType": "address",
          "name": "_collection",
          "type": "address"
        },
        {
          "internalType": "uint256",
          "name": "_tokenId",
          "type": "uint256"
        },
        {
          "internalType": "uint256",
          "name": "_newPrice",
          "type": "uint256"
        }
      ],
      "name": "modifyAskOrder",
      "outputs": [],
      "stateMutability": "nonpayable",
      "type": "function"
    },
    {
      "inputs": [],
      "name": "owner",
      "outputs": [
        {
          "internalType": "address",
          "name": "",
          "type": "address"
        }
      ],
      "stateMutability": "view",
      "type": "function"
    },
    {
      "inputs": [],
      "name": "renounceOwnership",
      "outputs": [],
      "stateMutability": "nonpayable",
      "type": "function"
    },
    {
      "inputs": [
        {
          "internalType": "address",
          "name": "_collection",
          "type": "address"
        },
        {
          "internalType": "uint256",
          "name": "_tokenId",
          "type": "uint256"
        }
      ],
      "name": "repayLoan",
      "outputs": [],
      "stateMutability": "payable",
      "type": "function"
    },
    {
      "inputs": [
        {
          "internalType": "address",
          "name": "newOwner",
          "type": "address"
        }
      ],
      "name": "transferOwnership",
      "outputs": [],
      "stateMutability": "nonpayable",
      "type": "function"
    },
    {
      "inputs": [
        {
          "internalType": "address",
          "name": "collection",
          "type": "address"
        },
        {
          "internalType": "uint256",
          "name": "cursor",
          "type": "uint256"
        },
        {
          "internalType": "uint256",
          "name": "size",
          "type": "uint256"
        }
      ],
      "name": "viewAsksByCollection",
      "outputs": [
        {
          "internalType": "uint256[]",
          "name": "tokenIds",
          "type": "uint256[]"
        },
        {
          "components": [
            {
              "internalType": "address",
              "name": "seller",
              "type": "address"
            },
            {
              "internalType": "uint256",
              "name": "price",
              "type": "uint256"
            },
            {
              "internalType": "uint256",
              "name": "repayInterestAmount",
              "type": "uint256"
            },
            {
              "internalType": "uint256",
              "name": "timeInDays",
              "type": "uint256"
            },
            {
              "internalType": "uint256",
              "name": "tokenId",
              "type": "uint256"
            }
          ],
          "internalType": "struct LendBorrow.CollateralAsk[]",
          "name": "askInfo",
          "type": "tuple[]"
        },
        {
          "internalType": "uint256",
          "name": "",
          "type": "uint256"
        }
      ],
      "stateMutability": "view",
      "type": "function"
    },
    {
      "inputs": [
        {
          "internalType": "address",
          "name": "collection",
          "type": "address"
        },
        {
          "internalType": "address",
          "name": "seller",
          "type": "address"
        },
        {
          "internalType": "uint256",
          "name": "cursor",
          "type": "uint256"
        },
        {
          "internalType": "uint256",
          "name": "size",
          "type": "uint256"
        }
      ],
      "name": "viewAsksByCollectionAndSeller",
      "outputs": [
        {
          "internalType": "uint256[]",
          "name": "tokenIds",
          "type": "uint256[]"
        },
        {
          "components": [
            {
              "internalType": "address",
              "name": "seller",
              "type": "address"
            },
            {
              "internalType": "uint256",
              "name": "price",
              "type": "uint256"
            },
            {
              "internalType": "uint256",
              "name": "repayInterestAmount",
              "type": "uint256"
            },
            {
              "internalType": "uint256",
              "name": "timeInDays",
              "type": "uint256"
            },
            {
              "internalType": "uint256",
              "name": "tokenId",
              "type": "uint256"
            }
          ],
          "internalType": "struct LendBorrow.CollateralAsk[]",
          "name": "askInfo",
          "type": "tuple[]"
        },
        {
          "internalType": "uint256",
          "name": "",
          "type": "uint256"
        }
      ],
      "stateMutability": "view",
      "type": "function"
    },
    {
      "inputs": [
        {
          "internalType": "address",
          "name": "collection",
          "type": "address"
        },
        {
          "internalType": "uint256[]",
          "name": "tokenIds",
          "type": "uint256[]"
        }
      ],
      "name": "viewAsksByCollectionAndTokenIds",
      "outputs": [
        {
          "internalType": "bool[]",
          "name": "statuses",
          "type": "bool[]"
        },
        {
          "components": [
            {
              "internalType": "address",
              "name": "seller",
              "type": "address"
            },
            {
              "internalType": "uint256",
              "name": "price",
              "type": "uint256"
            },
            {
              "internalType": "uint256",
              "name": "repayInterestAmount",
              "type": "uint256"
            },
            {
              "internalType": "uint256",
              "name": "timeInDays",
              "type": "uint256"
            },
            {
              "internalType": "uint256",
              "name": "tokenId",
              "type": "uint256"
            }
          ],
          "internalType": "struct LendBorrow.CollateralAsk[]",
          "name": "askInfo",
          "type": "tuple[]"
        }
      ],
      "stateMutability": "view",
      "type": "function"
    },
    {
      "inputs": [
        {
          "internalType": "address",
          "name": "collection",
          "type": "address"
        },
        {
          "internalType": "uint256[]",
          "name": "tokenIds",
          "type": "uint256[]"
        }
      ],
      "name": "viewAsksByCollectionAndTokenIdsOfBorrower",
      "outputs": [
        {
          "internalType": "bool[]",
          "name": "statuses",
          "type": "bool[]"
        },
        {
          "components": [
            {
              "internalType": "address",
              "name": "lender",
              "type": "address"
            },
            {
              "internalType": "address",
              "name": "borrower",
              "type": "address"
            },
            {
              "internalType": "uint256",
              "name": "endTime",
              "type": "uint256"
            },
            {
              "internalType": "uint256",
              "name": "repayInterestAmount",
              "type": "uint256"
            },
            {
              "internalType": "uint256",
              "name": "collateralPrice",
              "type": "uint256"
            },
            {
              "internalType": "uint256",
              "name": "tokenId",
              "type": "uint256"
            },
            {
              "internalType": "bool",
              "name": "isActive",
              "type": "bool"
            }
          ],
          "internalType": "struct LendBorrow.Loan[]",
          "name": "askInfo",
          "type": "tuple[]"
        }
      ],
      "stateMutability": "view",
      "type": "function"
    },
    {
      "inputs": [
        {
          "internalType": "address",
          "name": "collection",
          "type": "address"
        },
        {
          "internalType": "uint256",
          "name": "cursor",
          "type": "uint256"
        },
        {
          "internalType": "uint256",
          "name": "size",
          "type": "uint256"
        }
      ],
      "name": "viewAsksByCollectionOfBorrower",
      "outputs": [
        {
          "internalType": "uint256[]",
          "name": "tokenIds",
          "type": "uint256[]"
        },
        {
          "components": [
            {
              "internalType": "address",
              "name": "lender",
              "type": "address"
            },
            {
              "internalType": "address",
              "name": "borrower",
              "type": "address"
            },
            {
              "internalType": "uint256",
              "name": "endTime",
              "type": "uint256"
            },
            {
              "internalType": "uint256",
              "name": "repayInterestAmount",
              "type": "uint256"
            },
            {
              "internalType": "uint256",
              "name": "collateralPrice",
              "type": "uint256"
            },
            {
              "internalType": "uint256",
              "name": "tokenId",
              "type": "uint256"
            },
            {
              "internalType": "bool",
              "name": "isActive",
              "type": "bool"
            }
          ],
          "internalType": "struct LendBorrow.Loan[]",
          "name": "askInfo",
          "type": "tuple[]"
        },
        {
          "internalType": "uint256",
          "name": "",
          "type": "uint256"
        }
      ],
      "stateMutability": "view",
      "type": "function"
    }
  ],
  "bytecode": "0x60806040523480156200001157600080fd5b50604051620047383803806200473883398181016040528101906200003791906200018c565b60016000819055506200005f62000053620000a760201b60201c565b620000af60201b60201c565b80600260006101000a81548173ffffffffffffffffffffffffffffffffffffffff021916908373ffffffffffffffffffffffffffffffffffffffff1602179055505062000206565b600033905090565b6000600160009054906101000a900473ffffffffffffffffffffffffffffffffffffffff16905081600160006101000a81548173ffffffffffffffffffffffffffffffffffffffff021916908373ffffffffffffffffffffffffffffffffffffffff1602179055508173ffffffffffffffffffffffffffffffffffffffff168173ffffffffffffffffffffffffffffffffffffffff167f8be0079c531659141344cd1fd0a4f28419497f9722a3daafe3b4186f6b6457e060405160405180910390a35050565b6000815190506200018681620001ec565b92915050565b6000602082840312156200019f57600080fd5b6000620001af8482850162000175565b91505092915050565b6000620001c582620001cc565b9050919050565b600073ffffffffffffffffffffffffffffffffffffffff82169050919050565b620001f781620001b8565b81146200020357600080fd5b50565b61452280620002166000396000f3fe6080604052600436106100dd5760003560e01c806393a595f51161007f578063d286ef7411610059578063d286ef74146102b5578063e0a15739146102f4578063eac711da1461031d578063f2fde38b14610339576100dd565b806393a595f51461024757806395f42098146102635780639b2adcdc1461028c576100dd565b8063715018a6116100bb578063715018a61461019d57806384a40864146101b45780638da5cb5b146101f3578063909b8a371461021e576100dd565b806302fbde04146100e257806322f67b6d146101205780633c0636871461015e575b600080fd5b3480156100ee57600080fd5b506101096004803603810190610104919061377b565b610362565b604051610117929190613e27565b60405180910390f35b34801561012c57600080fd5b506101476004803603810190610142919061377b565b610784565b604051610155929190613df0565b60405180910390f35b34801561016a57600080fd5b506101856004803603810190610180919061380f565b610b35565b60405161019493929190613ea3565b60405180910390f35b3480156101a957600080fd5b506101b2610f85565b005b3480156101c057600080fd5b506101db60048036038101906101d6919061380f565b61100d565b6040516101ea93929190613e5e565b60405180910390f35b3480156101ff57600080fd5b506102086113ec565b6040516102159190613d75565b60405180910390f35b34801561022a57600080fd5b50610245600480360381019061024091906136dc565b611416565b005b610261600480360381019061025c91906137d3565b611642565b005b34801561026f57600080fd5b5061028a600480360381019061028591906137d3565b611ae6565b005b34801561029857600080fd5b506102b360048036038101906102ae919061380f565b611df7565b005b3480156102c157600080fd5b506102dc60048036038101906102d79190613718565b611f77565b6040516102eb93929190613e5e565b60405180910390f35b34801561030057600080fd5b5061031b6004803603810190610316919061385e565b61240e565b005b6103376004803603810190610332919061380f565b612865565b005b34801561034557600080fd5b50610360600480360381019061035b91906136b3565b6129bb565b005b60608060008484905090508067ffffffffffffffff8111156103ad577f4e487b7100000000000000000000000000000000000000000000000000000000600052604160045260246000fd5b6040519080825280602002602001820160405280156103db5781602001602082028036833780820191505090505b5092508067ffffffffffffffff81111561041e577f4e487b7100000000000000000000000000000000000000000000000000000000600052604160045260246000fd5b60405190808252806020026020018201604052801561045757816020015b61044461357a565b81526020019060019003908161043c5790505b50915060005b8181101561077a576104f58686838181106104a1577f4e487b7100000000000000000000000000000000000000000000000000000000600052603260045260246000fd5b90506020020135600a60008a73ffffffffffffffffffffffffffffffffffffffff1673ffffffffffffffffffffffffffffffffffffffff168152602001908152602001600020612ab390919063ffffffff16565b1561054c576001848281518110610535577f4e487b7100000000000000000000000000000000000000000000000000000000600052603260045260246000fd5b60200260200101901515908115158152505061059a565b6000848281518110610587577f4e487b7100000000000000000000000000000000000000000000000000000000600052603260045260246000fd5b6020026020010190151590811515815250505b600960008873ffffffffffffffffffffffffffffffffffffffff1673ffffffffffffffffffffffffffffffffffffffff1681526020019081526020016000206000878784818110610614577f4e487b7100000000000000000000000000000000000000000000000000000000600052603260045260246000fd5b9050602002013581526020019081526020016000206040518060e00160405290816000820160009054906101000a900473ffffffffffffffffffffffffffffffffffffffff1673ffffffffffffffffffffffffffffffffffffffff1673ffffffffffffffffffffffffffffffffffffffff1681526020016001820160009054906101000a900473ffffffffffffffffffffffffffffffffffffffff1673ffffffffffffffffffffffffffffffffffffffff1673ffffffffffffffffffffffffffffffffffffffff168152602001600282015481526020016003820154815260200160048201548152602001600582015481526020016006820160009054906101000a900460ff16151515158152505083828151811061075c577f4e487b7100000000000000000000000000000000000000000000000000000000600052603260045260246000fd5b6020026020010181905250808061077290614249565b91505061045d565b5050935093915050565b60608060008484905090508067ffffffffffffffff8111156107cf577f4e487b7100000000000000000000000000000000000000000000000000000000600052604160045260246000fd5b6040519080825280602002602001820160405280156107fd5781602001602082028036833780820191505090505b5092508067ffffffffffffffff811115610840577f4e487b7100000000000000000000000000000000000000000000000000000000600052604160045260246000fd5b60405190808252806020026020018201604052801561087957816020015b6108666135e5565b81526020019060019003908161085e5790505b50915060005b81811015610b2b576109178686838181106108c3577f4e487b7100000000000000000000000000000000000000000000000000000000600052603260045260246000fd5b90506020020135600660008a73ffffffffffffffffffffffffffffffffffffffff1673ffffffffffffffffffffffffffffffffffffffff168152602001908152602001600020612ab390919063ffffffff16565b1561096e576001848281518110610957577f4e487b7100000000000000000000000000000000000000000000000000000000600052603260045260246000fd5b6020026020010190151590811515815250506109bc565b60008482815181106109a9577f4e487b7100000000000000000000000000000000000000000000000000000000600052603260045260246000fd5b6020026020010190151590811515815250505b600560008873ffffffffffffffffffffffffffffffffffffffff1673ffffffffffffffffffffffffffffffffffffffff1681526020019081526020016000206000878784818110610a36577f4e487b7100000000000000000000000000000000000000000000000000000000600052603260045260246000fd5b9050602002013581526020019081526020016000206040518060a00160405290816000820160009054906101000a900473ffffffffffffffffffffffffffffffffffffffff1673ffffffffffffffffffffffffffffffffffffffff1673ffffffffffffffffffffffffffffffffffffffff168152602001600182015481526020016002820154815260200160038201548152602001600482015481525050838281518110610b0d577f4e487b7100000000000000000000000000000000000000000000000000000000600052603260045260246000fd5b60200260200101819052508080610b2390614249565b91505061087f565b5050935093915050565b60608060008084905085610b86600a60008a73ffffffffffffffffffffffffffffffffffffffff1673ffffffffffffffffffffffffffffffffffffffff168152602001908152602001600020612acd565b610b9091906141cd565b811115610bec5785610bdf600a60008a73ffffffffffffffffffffffffffffffffffffffff1673ffffffffffffffffffffffffffffffffffffffff168152602001908152602001600020612acd565b610be991906141cd565b90505b8067ffffffffffffffff811115610c2c577f4e487b7100000000000000000000000000000000000000000000000000000000600052604160045260246000fd5b604051908082528060200260200182016040528015610c5a5781602001602082028036833780820191505090505b5093508067ffffffffffffffff811115610c9d577f4e487b7100000000000000000000000000000000000000000000000000000000600052604160045260246000fd5b604051908082528060200260200182016040528015610cd657816020015b610cc361357a565b815260200190600190039081610cbb5790505b50925060005b81811015610f6657610d408188610cf3919061411d565b600a60008b73ffffffffffffffffffffffffffffffffffffffff1673ffffffffffffffffffffffffffffffffffffffff168152602001908152602001600020612ae290919063ffffffff16565b858281518110610d79577f4e487b7100000000000000000000000000000000000000000000000000000000600052603260045260246000fd5b602002602001018181525050600960008973ffffffffffffffffffffffffffffffffffffffff1673ffffffffffffffffffffffffffffffffffffffff1681526020019081526020016000206000868381518110610dff577f4e487b7100000000000000000000000000000000000000000000000000000000600052603260045260246000fd5b602002602001015181526020019081526020016000206040518060e00160405290816000820160009054906101000a900473ffffffffffffffffffffffffffffffffffffffff1673ffffffffffffffffffffffffffffffffffffffff1673ffffffffffffffffffffffffffffffffffffffff1681526020016001820160009054906101000a900473ffffffffffffffffffffffffffffffffffffffff1673ffffffffffffffffffffffffffffffffffffffff1673ffffffffffffffffffffffffffffffffffffffff168152602001600282015481526020016003820154815260200160048201548152602001600582015481526020016006820160009054906101000a900460ff161515151581525050848281518110610f48577f4e487b7100000000000000000000000000000000000000000000000000000000600052603260045260246000fd5b60200260200101819052508080610f5e90614249565b915050610cdc565b5083838288610f75919061411d565b9350935093505093509350939050565b610f8d612afc565b73ffffffffffffffffffffffffffffffffffffffff16610fab6113ec565b73ffffffffffffffffffffffffffffffffffffffff1614611001576040517f08c379a0000000000000000000000000000000000000000000000000000000008152600401610ff890613fa8565b60405180910390fd5b61100b6000612b04565b565b6060806000808490508561105e600660008a73ffffffffffffffffffffffffffffffffffffffff1673ffffffffffffffffffffffffffffffffffffffff168152602001908152602001600020612acd565b61106891906141cd565b8111156110c457856110b7600660008a73ffffffffffffffffffffffffffffffffffffffff1673ffffffffffffffffffffffffffffffffffffffff168152602001908152602001600020612acd565b6110c191906141cd565b90505b8067ffffffffffffffff811115611104577f4e487b7100000000000000000000000000000000000000000000000000000000600052604160045260246000fd5b6040519080825280602002602001820160405280156111325781602001602082028036833780820191505090505b5093508067ffffffffffffffff811115611175577f4e487b7100000000000000000000000000000000000000000000000000000000600052604160045260246000fd5b6040519080825280602002602001820160405280156111ae57816020015b61119b6135e5565b8152602001906001900390816111935790505b50925060005b818110156113cd5761121881886111cb919061411d565b600660008b73ffffffffffffffffffffffffffffffffffffffff1673ffffffffffffffffffffffffffffffffffffffff168152602001908152602001600020612ae290919063ffffffff16565b858281518110611251577f4e487b7100000000000000000000000000000000000000000000000000000000600052603260045260246000fd5b602002602001018181525050600560008973ffffffffffffffffffffffffffffffffffffffff1673ffffffffffffffffffffffffffffffffffffffff16815260200190815260200160002060008683815181106112d7577f4e487b7100000000000000000000000000000000000000000000000000000000600052603260045260246000fd5b602002602001015181526020019081526020016000206040518060a00160405290816000820160009054906101000a900473ffffffffffffffffffffffffffffffffffffffff1673ffffffffffffffffffffffffffffffffffffffff1673ffffffffffffffffffffffffffffffffffffffff1681526020016001820154815260200160028201548152602001600382015481526020016004820154815250508482815181106113af577f4e487b7100000000000000000000000000000000000000000000000000000000600052603260045260246000fd5b602002602001018190525080806113c590614249565b9150506111b4565b50838382886113dc919061411d565b9350935093505093509350939050565b6000600160009054906101000a900473ffffffffffffffffffffffffffffffffffffffff16905090565b61141e612afc565b73ffffffffffffffffffffffffffffffffffffffff1661143c6113ec565b73ffffffffffffffffffffffffffffffffffffffff1614611492576040517f08c379a000000000000000000000000000000000000000000000000000000000815260040161148990613fa8565b60405180910390fd5b6114a6826003612bca90919063ffffffff16565b156114e6576040517f08c379a00000000000000000000000000000000000000000000000000000000081526004016114dd90613f28565b60405180910390fd5b6114fa826003612bfa90919063ffffffff16565b50604051806040016040528060016002811115611540577f4e487b7100000000000000000000000000000000000000000000000000000000600052602160045260246000fd5b81526020018273ffffffffffffffffffffffffffffffffffffffff16815250600760008473ffffffffffffffffffffffffffffffffffffffff1673ffffffffffffffffffffffffffffffffffffffff16815260200190815260200160002060008201518160000160006101000a81548160ff021916908360028111156115ef577f4e487b7100000000000000000000000000000000000000000000000000000000600052602160045260246000fd5b021790555060208201518160000160016101000a81548173ffffffffffffffffffffffffffffffffffffffff021916908373ffffffffffffffffffffffffffffffffffffffff1602179055509050505050565b6000600960008473ffffffffffffffffffffffffffffffffffffffff1673ffffffffffffffffffffffffffffffffffffffff168152602001908152602001600020600083815260200190815260200160002090508060060160009054906101000a900460ff166116e7576040517f08c379a00000000000000000000000000000000000000000000000000000000081526004016116de90613fc8565b60405180910390fd5b8273ffffffffffffffffffffffffffffffffffffffff166342842e0e338360000160009054906101000a900473ffffffffffffffffffffffffffffffffffffffff16856040518463ffffffff1660e01b815260040161174893929190613d90565b600060405180830381600087803b15801561176257600080fd5b505af1158015611776573d6000803e3d6000fd5b5050505060008160030154826004015461179091906141cd565b9050600260009054906101000a900473ffffffffffffffffffffffffffffffffffffffff1673ffffffffffffffffffffffffffffffffffffffff1663a9059cbb8360000160009054906101000a900473ffffffffffffffffffffffffffffffffffffffff1684600301546040518363ffffffff1660e01b8152600401611817929190613dc7565b602060405180830381600087803b15801561183157600080fd5b505af1158015611845573d6000803e3d6000fd5b505050506040513d601f19601f8201168201806040525081019061186991906138d5565b61187257600080fd5b600260009054906101000a900473ffffffffffffffffffffffffffffffffffffffff1673ffffffffffffffffffffffffffffffffffffffff1663a9059cbb33836040518363ffffffff1660e01b81526004016118cf929190613dc7565b602060405180830381600087803b1580156118e957600080fd5b505af11580156118fd573d6000803e3d6000fd5b505050506040513d601f19601f8201168201806040525081019061192191906138d5565b61192a57600080fd5b6119b883600b60003373ffffffffffffffffffffffffffffffffffffffff1673ffffffffffffffffffffffffffffffffffffffff16815260200190815260200160002060008773ffffffffffffffffffffffffffffffffffffffff1673ffffffffffffffffffffffffffffffffffffffff168152602001908152602001600020612c2a90919063ffffffff16565b50600960008573ffffffffffffffffffffffffffffffffffffffff1673ffffffffffffffffffffffffffffffffffffffff1681526020019081526020016000206000848152602001908152602001600020600080820160006101000a81549073ffffffffffffffffffffffffffffffffffffffff02191690556001820160006101000a81549073ffffffffffffffffffffffffffffffffffffffff021916905560028201600090556003820160009055600482016000905560058201600090556006820160006101000a81549060ff02191690555050611adf83600a60008773ffffffffffffffffffffffffffffffffffffffff1673ffffffffffffffffffffffffffffffffffffffff168152602001908152602001600020612c2a90919063ffffffff16565b5050505050565b60026000541415611b2c576040517f08c379a0000000000000000000000000000000000000000000000000000000008152600401611b2390614008565b60405180910390fd5b6002600081905550611bc281600860003373ffffffffffffffffffffffffffffffffffffffff1673ffffffffffffffffffffffffffffffffffffffff16815260200190815260200160002060008573ffffffffffffffffffffffffffffffffffffffff1673ffffffffffffffffffffffffffffffffffffffff168152602001908152602001600020612ab390919063ffffffff16565b611c01576040517f08c379a0000000000000000000000000000000000000000000000000000000008152600401611bf890613f88565b60405180910390fd5b611c8f81600860003373ffffffffffffffffffffffffffffffffffffffff1673ffffffffffffffffffffffffffffffffffffffff16815260200190815260200160002060008573ffffffffffffffffffffffffffffffffffffffff1673ffffffffffffffffffffffffffffffffffffffff168152602001908152602001600020612c2a90919063ffffffff16565b50600560008373ffffffffffffffffffffffffffffffffffffffff1673ffffffffffffffffffffffffffffffffffffffff1681526020019081526020016000206000828152602001908152602001600020600080820160006101000a81549073ffffffffffffffffffffffffffffffffffffffff021916905560018201600090556002820160009055600382016000905560048201600090555050611d7b81600660008573ffffffffffffffffffffffffffffffffffffffff1673ffffffffffffffffffffffffffffffffffffffff168152602001908152602001600020612c2a90919063ffffffff16565b508173ffffffffffffffffffffffffffffffffffffffff166323b872dd3033846040518463ffffffff1660e01b8152600401611db993929190613d90565b600060405180830381600087803b158015611dd357600080fd5b505af1158015611de7573d6000803e3d6000fd5b5050505060016000819055505050565b60026000541415611e3d576040517f08c379a0000000000000000000000000000000000000000000000000000000008152600401611e3490614008565b60405180910390fd5b6002600081905550611ed382600860003373ffffffffffffffffffffffffffffffffffffffff1673ffffffffffffffffffffffffffffffffffffffff16815260200190815260200160002060008673ffffffffffffffffffffffffffffffffffffffff1673ffffffffffffffffffffffffffffffffffffffff168152602001908152602001600020612ab390919063ffffffff16565b611f12576040517f08c379a0000000000000000000000000000000000000000000000000000000008152600401611f0990613f88565b60405180910390fd5b80600560008573ffffffffffffffffffffffffffffffffffffffff1673ffffffffffffffffffffffffffffffffffffffff1681526020019081526020016000206000848152602001908152602001600020600101819055506001600081905550505050565b60608060008084905085612005600860008a73ffffffffffffffffffffffffffffffffffffffff1673ffffffffffffffffffffffffffffffffffffffff16815260200190815260200160002060008b73ffffffffffffffffffffffffffffffffffffffff1673ffffffffffffffffffffffffffffffffffffffff168152602001908152602001600020612acd565b61200f91906141cd565b8111156120a8578561209b600860008a73ffffffffffffffffffffffffffffffffffffffff1673ffffffffffffffffffffffffffffffffffffffff16815260200190815260200160002060008b73ffffffffffffffffffffffffffffffffffffffff1673ffffffffffffffffffffffffffffffffffffffff168152602001908152602001600020612acd565b6120a591906141cd565b90505b8067ffffffffffffffff8111156120e8577f4e487b7100000000000000000000000000000000000000000000000000000000600052604160045260246000fd5b6040519080825280602002602001820160405280156121165781602001602082028036833780820191505090505b5093508067ffffffffffffffff811115612159577f4e487b7100000000000000000000000000000000000000000000000000000000600052604160045260246000fd5b60405190808252806020026020018201604052801561219257816020015b61217f6135e5565b8152602001906001900390816121775790505b50925060005b818110156123ee5761223981886121af919061411d565b600860008b73ffffffffffffffffffffffffffffffffffffffff1673ffffffffffffffffffffffffffffffffffffffff16815260200190815260200160002060008c73ffffffffffffffffffffffffffffffffffffffff1673ffffffffffffffffffffffffffffffffffffffff168152602001908152602001600020612ae290919063ffffffff16565b858281518110612272577f4e487b7100000000000000000000000000000000000000000000000000000000600052603260045260246000fd5b602002602001018181525050600560008a73ffffffffffffffffffffffffffffffffffffffff1673ffffffffffffffffffffffffffffffffffffffff16815260200190815260200160002060008683815181106122f8577f4e487b7100000000000000000000000000000000000000000000000000000000600052603260045260246000fd5b602002602001015181526020019081526020016000206040518060a00160405290816000820160009054906101000a900473ffffffffffffffffffffffffffffffffffffffff1673ffffffffffffffffffffffffffffffffffffffff1673ffffffffffffffffffffffffffffffffffffffff1681526020016001820154815260200160028201548152602001600382015481526020016004820154815250508482815181106123d0577f4e487b7100000000000000000000000000000000000000000000000000000000600052603260045260246000fd5b602002602001018190525080806123e690614249565b915050612198565b50838382886123fd919061411d565b935093509350509450945094915050565b60026000541415612454576040517f08c379a000000000000000000000000000000000000000000000000000000000815260040161244b90614008565b60405180910390fd5b60026000819055506000600960008773ffffffffffffffffffffffffffffffffffffffff1673ffffffffffffffffffffffffffffffffffffffff16815260200190815260200160002060008681526020019081526020016000206040518060e00160405290816000820160009054906101000a900473ffffffffffffffffffffffffffffffffffffffff1673ffffffffffffffffffffffffffffffffffffffff1673ffffffffffffffffffffffffffffffffffffffff1681526020016001820160009054906101000a900473ffffffffffffffffffffffffffffffffffffffff1673ffffffffffffffffffffffffffffffffffffffff1673ffffffffffffffffffffffffffffffffffffffff168152602001600282015481526020016003820154815260200160048201548152602001600582015481526020016006820160009054906101000a900460ff16151515158152505090508060c00151156125ef576040517f08c379a00000000000000000000000000000000000000000000000000000000081526004016125e690613fc8565b60405180910390fd5b8573ffffffffffffffffffffffffffffffffffffffff166323b872dd3330886040518463ffffffff1660e01b815260040161262c93929190613d90565b600060405180830381600087803b15801561264657600080fd5b505af115801561265a573d6000803e3d6000fd5b505050506126ec85600860003373ffffffffffffffffffffffffffffffffffffffff1673ffffffffffffffffffffffffffffffffffffffff16815260200190815260200160002060008973ffffffffffffffffffffffffffffffffffffffff1673ffffffffffffffffffffffffffffffffffffffff168152602001908152602001600020612c4490919063ffffffff16565b506040518060a001604052803373ffffffffffffffffffffffffffffffffffffffff168152602001858152602001848152602001603c808561272e9190614173565b6127389190614173565b815260200186815250600560008873ffffffffffffffffffffffffffffffffffffffff1673ffffffffffffffffffffffffffffffffffffffff168152602001908152602001600020600087815260200190815260200160002060008201518160000160006101000a81548173ffffffffffffffffffffffffffffffffffffffff021916908373ffffffffffffffffffffffffffffffffffffffff1602179055506020820151816001015560408201518160020155606082015181600301556080820151816004015590505061285485600660008973ffffffffffffffffffffffffffffffffffffffff1673ffffffffffffffffffffffffffffffffffffffff168152602001908152602001600020612c4490919063ffffffff16565b505060016000819055505050505050565b600260005414156128ab576040517f08c379a00000000000000000000000000000000000000000000000000000000081526004016128a290614008565b60405180910390fd5b6002600081905550600260009054906101000a900473ffffffffffffffffffffffffffffffffffffffff1673ffffffffffffffffffffffffffffffffffffffff166323b872dd3330846040518463ffffffff1660e01b815260040161291293929190613d90565b602060405180830381600087803b15801561292c57600080fd5b505af1158015612940573d6000803e3d6000fd5b505050506040513d601f19601f8201168201806040525081019061296491906138d5565b6129a3576040517f08c379a000000000000000000000000000000000000000000000000000000000815260040161299a90613fe8565b60405180910390fd5b6129ae838383612c5e565b6001600081905550505050565b6129c3612afc565b73ffffffffffffffffffffffffffffffffffffffff166129e16113ec565b73ffffffffffffffffffffffffffffffffffffffff1614612a37576040517f08c379a0000000000000000000000000000000000000000000000000000000008152600401612a2e90613fa8565b60405180910390fd5b600073ffffffffffffffffffffffffffffffffffffffff168173ffffffffffffffffffffffffffffffffffffffff161415612aa7576040517f08c379a0000000000000000000000000000000000000000000000000000000008152600401612a9e90613f08565b60405180910390fd5b612ab081612b04565b50565b6000612ac5836000018360001b6132ff565b905092915050565b6000612adb82600001613322565b9050919050565b6000612af18360000183613333565b60001c905092915050565b600033905090565b6000600160009054906101000a900473ffffffffffffffffffffffffffffffffffffffff16905081600160006101000a81548173ffffffffffffffffffffffffffffffffffffffff021916908373ffffffffffffffffffffffffffffffffffffffff1602179055508173ffffffffffffffffffffffffffffffffffffffff168173ffffffffffffffffffffffffffffffffffffffff167f8be0079c531659141344cd1fd0a4f28419497f9722a3daafe3b4186f6b6457e060405160405180910390a35050565b6000612bf2836000018373ffffffffffffffffffffffffffffffffffffffff1660001b6132ff565b905092915050565b6000612c22836000018373ffffffffffffffffffffffffffffffffffffffff1660001b613384565b905092915050565b6000612c3c836000018360001b6133f4565b905092915050565b6000612c56836000018360001b613384565b905092915050565b612caf82600660008673ffffffffffffffffffffffffffffffffffffffff1673ffffffffffffffffffffffffffffffffffffffff168152602001908152602001600020612ab390919063ffffffff16565b612cee576040517f08c379a0000000000000000000000000000000000000000000000000000000008152600401612ce590613f68565b60405180910390fd5b6000600560008573ffffffffffffffffffffffffffffffffffffffff1673ffffffffffffffffffffffffffffffffffffffff16815260200190815260200160002060008481526020019081526020016000206040518060a00160405290816000820160009054906101000a900473ffffffffffffffffffffffffffffffffffffffff1673ffffffffffffffffffffffffffffffffffffffff1673ffffffffffffffffffffffffffffffffffffffff168152602001600182015481526020016002820154815260200160038201548152602001600482015481525050905080602001518214612e11576040517f08c379a0000000000000000000000000000000000000000000000000000000008152600401612e0890613f48565b60405180910390fd5b806000015173ffffffffffffffffffffffffffffffffffffffff163373ffffffffffffffffffffffffffffffffffffffff161415612e84576040517f08c379a0000000000000000000000000000000000000000000000000000000008152600401612e7b90613ee8565b60405180910390fd5b612f168360086000846000015173ffffffffffffffffffffffffffffffffffffffff1673ffffffffffffffffffffffffffffffffffffffff16815260200190815260200160002060008773ffffffffffffffffffffffffffffffffffffffff1673ffffffffffffffffffffffffffffffffffffffff168152602001908152602001600020612c2a90919063ffffffff16565b50600560008573ffffffffffffffffffffffffffffffffffffffff1673ffffffffffffffffffffffffffffffffffffffff1681526020019081526020016000206000848152602001908152602001600020600080820160006101000a81549073ffffffffffffffffffffffffffffffffffffffff02191690556001820160009055600282016000905560038201600090556004820160009055505061300283600660008773ffffffffffffffffffffffffffffffffffffffff1673ffffffffffffffffffffffffffffffffffffffff168152602001908152602001600020612c2a90919063ffffffff16565b5061309183600b60003373ffffffffffffffffffffffffffffffffffffffff1673ffffffffffffffffffffffffffffffffffffffff16815260200190815260200160002060008773ffffffffffffffffffffffffffffffffffffffff1673ffffffffffffffffffffffffffffffffffffffff168152602001908152602001600020612c4490919063ffffffff16565b506040518060e00160405280826000015173ffffffffffffffffffffffffffffffffffffffff1681526020013373ffffffffffffffffffffffffffffffffffffffff1681526020018260600151426130e9919061411d565b8152602001826040015181526020018260200151815260200184815260200160011515815250600960008673ffffffffffffffffffffffffffffffffffffffff1673ffffffffffffffffffffffffffffffffffffffff168152602001908152602001600020600085815260200190815260200160002060008201518160000160006101000a81548173ffffffffffffffffffffffffffffffffffffffff021916908373ffffffffffffffffffffffffffffffffffffffff16021790555060208201518160010160006101000a81548173ffffffffffffffffffffffffffffffffffffffff021916908373ffffffffffffffffffffffffffffffffffffffff16021790555060408201518160020155606082015181600301556080820151816004015560a0820151816005015560c08201518160060160006101000a81548160ff02191690831515021790555090505061328983600a60008773ffffffffffffffffffffffffffffffffffffffff1673ffffffffffffffffffffffffffffffffffffffff168152602001908152602001600020612c4490919063ffffffff16565b508373ffffffffffffffffffffffffffffffffffffffff166342842e0e3033866040518463ffffffff1660e01b81526004016132c793929190613d90565b600060405180830381600087803b1580156132e157600080fd5b505af11580156132f5573d6000803e3d6000fd5b5050505050505050565b600080836001016000848152602001908152602001600020541415905092915050565b600081600001805490509050919050565b6000826000018281548110613371577f4e487b7100000000000000000000000000000000000000000000000000000000600052603260045260246000fd5b9060005260206000200154905092915050565b600061339083836132ff565b6133e95782600001829080600181540180825580915050600190039060005260206000200160009091909190915055826000018054905083600101600084815260200190815260200160002081905550600190506133ee565b600090505b92915050565b6000808360010160008481526020019081526020016000205490506000811461356e57600060018261342691906141cd565b905060006001866000018054905061343e91906141cd565b90508181146134f9576000866000018281548110613485577f4e487b7100000000000000000000000000000000000000000000000000000000600052603260045260246000fd5b90600052602060002001549050808760000184815481106134cf577f4e487b7100000000000000000000000000000000000000000000000000000000600052603260045260246000fd5b90600052602060002001819055508387600101600083815260200190815260200160002081905550505b85600001805480613533577f4e487b7100000000000000000000000000000000000000000000000000000000600052603160045260246000fd5b600190038181906000526020600020016000905590558560010160008681526020019081526020016000206000905560019350505050613574565b60009150505b92915050565b6040518060e00160405280600073ffffffffffffffffffffffffffffffffffffffff168152602001600073ffffffffffffffffffffffffffffffffffffffff168152602001600081526020016000815260200160008152602001600081526020016000151581525090565b6040518060a00160405280600073ffffffffffffffffffffffffffffffffffffffff168152602001600081526020016000815260200160008152602001600081525090565b600081359050613639816144a7565b92915050565b60008083601f84011261365157600080fd5b8235905067ffffffffffffffff81111561366a57600080fd5b60208301915083602082028301111561368257600080fd5b9250929050565b600081519050613698816144be565b92915050565b6000813590506136ad816144d5565b92915050565b6000602082840312156136c557600080fd5b60006136d38482850161362a565b91505092915050565b600080604083850312156136ef57600080fd5b60006136fd8582860161362a565b925050602061370e8582860161362a565b9150509250929050565b6000806000806080858703121561372e57600080fd5b600061373c8782880161362a565b945050602061374d8782880161362a565b935050604061375e8782880161369e565b925050606061376f8782880161369e565b91505092959194509250565b60008060006040848603121561379057600080fd5b600061379e8682870161362a565b935050602084013567ffffffffffffffff8111156137bb57600080fd5b6137c78682870161363f565b92509250509250925092565b600080604083850312156137e657600080fd5b60006137f48582860161362a565b92505060206138058582860161369e565b9150509250929050565b60008060006060848603121561382457600080fd5b60006138328682870161362a565b93505060206138438682870161369e565b92505060406138548682870161369e565b9150509250925092565b600080600080600060a0868803121561387657600080fd5b60006138848882890161362a565b95505060206138958882890161369e565b94505060406138a68882890161369e565b93505060606138b78882890161369e565b92505060806138c88882890161369e565b9150509295509295909350565b6000602082840312156138e757600080fd5b60006138f584828501613689565b91505092915050565b600061390a8383613af4565b60208301905092915050565b60006139228383613c61565b60a08301905092915050565b600061393a8383613cc9565b60e08301905092915050565b60006139528383613d57565b60208301905092915050565b61396781614201565b82525050565b61397681614201565b82525050565b600061398782614068565b61399181856140c8565b935061399c83614028565b8060005b838110156139cd5781516139b488826138fe565b97506139bf83614094565b9250506001810190506139a0565b5085935050505092915050565b60006139e582614073565b6139ef81856140d9565b93506139fa83614038565b8060005b83811015613a2b578151613a128882613916565b9750613a1d836140a1565b9250506001810190506139fe565b5085935050505092915050565b6000613a438261407e565b613a4d81856140ea565b9350613a5883614048565b8060005b83811015613a89578151613a70888261392e565b9750613a7b836140ae565b925050600181019050613a5c565b5085935050505092915050565b6000613aa182614089565b613aab81856140fb565b9350613ab683614058565b8060005b83811015613ae7578151613ace8882613946565b9750613ad9836140bb565b925050600181019050613aba565b5085935050505092915050565b613afd81614213565b82525050565b6000613b1060168361410c565b9150613b1b826142c1565b602082019050919050565b6000613b3360268361410c565b9150613b3e826142ea565b604082019050919050565b6000613b5660198361410c565b9150613b6182614339565b602082019050919050565b6000613b79600f8361410c565b9150613b8482614362565b602082019050919050565b6000613b9c60258361410c565b9150613ba78261438b565b604082019050919050565b6000613bbf60138361410c565b9150613bca826143da565b602082019050919050565b6000613be260208361410c565b9150613bed82614403565b602082019050919050565b6000613c0560108361410c565b9150613c108261442c565b602082019050919050565b6000613c2860148361410c565b9150613c3382614455565b602082019050919050565b6000613c4b601f8361410c565b9150613c568261447e565b602082019050919050565b60a082016000820151613c77600085018261395e565b506020820151613c8a6020850182613d57565b506040820151613c9d6040850182613d57565b506060820151613cb06060850182613d57565b506080820151613cc36080850182613d57565b50505050565b60e082016000820151613cdf600085018261395e565b506020820151613cf2602085018261395e565b506040820151613d056040850182613d57565b506060820151613d186060850182613d57565b506080820151613d2b6080850182613d57565b5060a0820151613d3e60a0850182613d57565b5060c0820151613d5160c0850182613af4565b50505050565b613d608161423f565b82525050565b613d6f8161423f565b82525050565b6000602082019050613d8a600083018461396d565b92915050565b6000606082019050613da5600083018661396d565b613db2602083018561396d565b613dbf6040830184613d66565b949350505050565b6000604082019050613ddc600083018561396d565b613de96020830184613d66565b9392505050565b60006040820190508181036000830152613e0a818561397c565b90508181036020830152613e1e81846139da565b90509392505050565b60006040820190508181036000830152613e41818561397c565b90508181036020830152613e558184613a38565b90509392505050565b60006060820190508181036000830152613e788186613a96565b90508181036020830152613e8c81856139da565b9050613e9b6040830184613d66565b949350505050565b60006060820190508181036000830152613ebd8186613a96565b90508181036020830152613ed18185613a38565b9050613ee06040830184613d66565b949350505050565b60006020820190508181036000830152613f0181613b03565b9050919050565b60006020820190508181036000830152613f2181613b26565b9050919050565b60006020820190508181036000830152613f4181613b49565b9050919050565b60006020820190508181036000830152613f6181613b6c565b9050919050565b60006020820190508181036000830152613f8181613b8f565b9050919050565b60006020820190508181036000830152613fa181613bb2565b9050919050565b60006020820190508181036000830152613fc181613bd5565b9050919050565b60006020820190508181036000830152613fe181613bf8565b9050919050565b6000602082019050818103600083015261400181613c1b565b9050919050565b6000602082019050818103600083015261402181613c3e565b9050919050565b6000819050602082019050919050565b6000819050602082019050919050565b6000819050602082019050919050565b6000819050602082019050919050565b600081519050919050565b600081519050919050565b600081519050919050565b600081519050919050565b6000602082019050919050565b6000602082019050919050565b6000602082019050919050565b6000602082019050919050565b600082825260208201905092915050565b600082825260208201905092915050565b600082825260208201905092915050565b600082825260208201905092915050565b600082825260208201905092915050565b60006141288261423f565b91506141338361423f565b9250827fffffffffffffffffffffffffffffffffffffffffffffffffffffffffffffffff0382111561416857614167614292565b5b828201905092915050565b600061417e8261423f565b91506141898361423f565b9250817fffffffffffffffffffffffffffffffffffffffffffffffffffffffffffffffff04831182151516156141c2576141c1614292565b5b828202905092915050565b60006141d88261423f565b91506141e38361423f565b9250828210156141f6576141f5614292565b5b828203905092915050565b600061420c8261421f565b9050919050565b60008115159050919050565b600073ffffffffffffffffffffffffffffffffffffffff82169050919050565b6000819050919050565b60006142548261423f565b91507fffffffffffffffffffffffffffffffffffffffffffffffffffffffffffffffff82141561428757614286614292565b5b600182019050919050565b7f4e487b7100000000000000000000000000000000000000000000000000000000600052601160045260246000fd5b7f42757965722063616e6e6f742062652073656c6c657200000000000000000000600082015250565b7f4f776e61626c653a206e6577206f776e657220697320746865207a65726f206160008201527f6464726573730000000000000000000000000000000000000000000000000000602082015250565b7f436f6c6c656374696f6e20616c7265616479206c697374656400000000000000600082015250565b7f496e636f72726563742070726963650000000000000000000000000000000000600082015250565b7f546f6b656e206973206e6f7420666f7220617661696c61626c6520666f72206260008201527f6f72726f77000000000000000000000000000000000000000000000000000000602082015250565b7f546f6b656e206973206e6f74206c697374656400000000000000000000000000600082015250565b7f4f776e61626c653a2063616c6c6572206973206e6f7420746865206f776e6572600082015250565b7f616c726561647920626f72726f77656400000000000000000000000000000000600082015250565b7f75736463207472616e73666572206661696c6564000000000000000000000000600082015250565b7f5265656e7472616e637947756172643a207265656e7472616e742063616c6c00600082015250565b6144b081614201565b81146144bb57600080fd5b50565b6144c781614213565b81146144d257600080fd5b50565b6144de8161423f565b81146144e957600080fd5b5056fea264697066735822122004466b700ed29a2c9e5e8febd8d16d035542bc5dd5107b8b809bc533abe787de64736f6c63430008040033",
  "linkReferences": {},
  "deployedLinkReferences": {}
}