{
  "_format": "hh-sol-artifact-1",
  "contractName": "FractionalERC721Factory",
  "sourceName": "contracts/Fractional/FractionalERC721Factory.sol",
  "abi": [
    {
      "inputs": [],
      "stateMutability": "nonpayable",
      "type": "constructor"
    },
    {
      "inputs": [
        {
          "internalType": "address",
          "name": "_nftCollection",
          "type": "address"
        },
        {
          "internalType": "uint256",
          "name": "_id",
          "type": "uint256"
        },
        {
          "internalType": "string",
          "name": "_name",
          "type": "string"
        },
        {
          "internalType": "string",
          "name": "_symbol",
          "type": "string"
        },
        {
          "internalType": "uint256",
          "name": "_totalSupply",
          "type": "uint256"
        },
        {
          "internalType": "uint256",
          "name": "_listPrice",
          "type": "uint256"
        }
      ],
      "name": "mint",
      "outputs": [
        {
          "internalType": "uint256",
          "name": "_vaultCount",
          "type": "uint256"
        }
      ],
      "stateMutability": "nonpayable",
      "type": "function"
    },
    {
      "inputs": [],
      "name": "vaultCount",
      "outputs": [
        {
          "internalType": "uint256",
          "name": "",
          "type": "uint256"
        }
      ],
      "stateMutability": "view",
      "type": "function"
    },
    {
      "inputs": [
        {
          "internalType": "uint256",
          "name": "",
          "type": "uint256"
        }
      ],
      "name": "vaultToVaultContract",
      "outputs": [
        {
          "internalType": "address",
          "name": "",
          "type": "address"
        }
      ],
      "stateMutability": "view",
      "type": "function"
    }
  ],
  "bytecode": "0x60806040526000805534801561001457600080fd5b506127b4806100246000396000f3fe60806040523480156200001157600080fd5b5060043610620000465760003560e01c80632d62fb8c146200004b578063a7c6a1001462000081578063b268245e14620000a3575b600080fd5b620000696004803603810190620000639190620003c1565b620000d9565b60405162000078919062000450565b60405180910390f35b6200008b6200010c565b6040516200009a919062000535565b60405180910390f35b620000c16004803603810190620000bb9190620002f9565b62000112565b604051620000d0919062000535565b60405180910390f35b60016020528060005260406000206000915054906101000a900473ffffffffffffffffffffffffffffffffffffffff1681565b60005481565b600080338888888888886040516200012a906200024b565b6200013c9796959493929190620004aa565b604051809103906000f08015801562000159573d6000803e3d6000fd5b5090508773ffffffffffffffffffffffffffffffffffffffff166323b872dd33838a6040518463ffffffff1660e01b81526004016200019b939291906200046d565b600060405180830381600087803b158015620001b657600080fd5b505af1158015620001cb573d6000803e3d6000fd5b5050505080600160008054815260200190815260200160002060006101000a81548173ffffffffffffffffffffffffffffffffffffffff021916908373ffffffffffffffffffffffffffffffffffffffff160217905550600080815480929190620002369062000686565b91905055506000549150509695505050505050565b612007806200077883390190565b6000620002706200026a846200057b565b62000552565b9050828152602081018484840111156200028957600080fd5b620002968482856200060b565b509392505050565b600081359050620002af8162000743565b92915050565b600082601f830112620002c757600080fd5b8135620002d984826020860162000259565b91505092915050565b600081359050620002f3816200075d565b92915050565b60008060008060008060c087890312156200031357600080fd5b60006200032389828a016200029e565b96505060206200033689828a01620002e2565b955050604087013567ffffffffffffffff8111156200035457600080fd5b6200036289828a01620002b5565b945050606087013567ffffffffffffffff8111156200038057600080fd5b6200038e89828a01620002b5565b9350506080620003a189828a01620002e2565b92505060a0620003b489828a01620002e2565b9150509295509295509295565b600060208284031215620003d457600080fd5b6000620003e484828501620002e2565b91505092915050565b620003f881620005cd565b82525050565b60006200040b82620005b1565b620004178185620005bc565b9350620004298185602086016200061a565b620004348162000732565b840191505092915050565b6200044a8162000601565b82525050565b6000602082019050620004676000830184620003ed565b92915050565b6000606082019050620004846000830186620003ed565b620004936020830185620003ed565b620004a260408301846200043f565b949350505050565b600060e082019050620004c1600083018a620003ed565b620004d06020830189620003ed565b620004df60408301886200043f565b8181036060830152620004f38187620003fe565b90508181036080830152620005098186620003fe565b90506200051a60a08301856200043f565b6200052960c08301846200043f565b98975050505050505050565b60006020820190506200054c60008301846200043f565b92915050565b60006200055e62000571565b90506200056c828262000650565b919050565b6000604051905090565b600067ffffffffffffffff82111562000599576200059862000703565b5b620005a48262000732565b9050602081019050919050565b600081519050919050565b600082825260208201905092915050565b6000620005da82620005e1565b9050919050565b600073ffffffffffffffffffffffffffffffffffffffff82169050919050565b6000819050919050565b82818337600083830152505050565b60005b838110156200063a5780820151818401526020810190506200061d565b838111156200064a576000848401525b50505050565b6200065b8262000732565b810181811067ffffffffffffffff821117156200067d576200067c62000703565b5b80604052505050565b6000620006938262000601565b91507fffffffffffffffffffffffffffffffffffffffffffffffffffffffffffffffff821415620006c957620006c8620006d4565b5b600182019050919050565b7f4e487b7100000000000000000000000000000000000000000000000000000000600052601160045260246000fd5b7f4e487b7100000000000000000000000000000000000000000000000000000000600052604160045260246000fd5b6000601f19601f8301169050919050565b6200074e81620005cd565b81146200075a57600080fd5b50565b620007688162000601565b81146200077457600080fd5b5056fe60a06040523480156200001157600080fd5b5060405162002007380380620020078339818101604052810190620000379190620003f0565b8383816003908051906020019062000051929190620002a0565b5080600490805190602001906200006a929190620002a0565b50505086600660006101000a81548173ffffffffffffffffffffffffffffffffffffffff021916908373ffffffffffffffffffffffffffffffffffffffff16021790555085600560006101000a81548173ffffffffffffffffffffffffffffffffffffffff021916908373ffffffffffffffffffffffffffffffffffffffff1602179055506200010187836200011d60201b60201c565b84608081815250508060078190555050505050505050620007ee565b600073ffffffffffffffffffffffffffffffffffffffff168273ffffffffffffffffffffffffffffffffffffffff16141562000190576040517f08c379a0000000000000000000000000000000000000000000000000000000008152600401620001879062000507565b60405180910390fd5b620001a4600083836200029660201b60201c565b8060026000828254620001b89190620005b6565b92505081905550806000808473ffffffffffffffffffffffffffffffffffffffff1673ffffffffffffffffffffffffffffffffffffffff16815260200190815260200160002060008282546200020f9190620005b6565b925050819055508173ffffffffffffffffffffffffffffffffffffffff16600073ffffffffffffffffffffffffffffffffffffffff167fddf252ad1be2c89b69c2b068fc378daa952ba7f163c4a11628f55a4df523b3ef8360405162000276919062000529565b60405180910390a362000292600083836200029b60201b60201c565b5050565b505050565b505050565b828054620002ae9062000687565b90600052602060002090601f016020900481019282620002d257600085556200031e565b82601f10620002ed57805160ff19168380011785556200031e565b828001600101855582156200031e579182015b828111156200031d57825182559160200191906001019062000300565b5b5090506200032d919062000331565b5090565b5b808211156200034c57600081600090555060010162000332565b5090565b60006200036762000361846200056f565b62000546565b9050828152602081018484840111156200038057600080fd5b6200038d84828562000651565b509392505050565b600081519050620003a681620007ba565b92915050565b600082601f830112620003be57600080fd5b8151620003d084826020860162000350565b91505092915050565b600081519050620003ea81620007d4565b92915050565b600080600080600080600060e0888a0312156200040c57600080fd5b60006200041c8a828b0162000395565b97505060206200042f8a828b0162000395565b9650506040620004428a828b01620003d9565b955050606088015167ffffffffffffffff8111156200046057600080fd5b6200046e8a828b01620003ac565b945050608088015167ffffffffffffffff8111156200048c57600080fd5b6200049a8a828b01620003ac565b93505060a0620004ad8a828b01620003d9565b92505060c0620004c08a828b01620003d9565b91505092959891949750929550565b6000620004de601f83620005a5565b9150620004eb8262000791565b602082019050919050565b620005018162000647565b82525050565b600060208201905081810360008301526200052281620004cf565b9050919050565b6000602082019050620005406000830184620004f6565b92915050565b60006200055262000565565b9050620005608282620006bd565b919050565b6000604051905090565b600067ffffffffffffffff8211156200058d576200058c62000751565b5b620005988262000780565b9050602081019050919050565b600082825260208201905092915050565b6000620005c38262000647565b9150620005d08362000647565b9250827fffffffffffffffffffffffffffffffffffffffffffffffffffffffffffffffff03821115620006085762000607620006f3565b5b828201905092915050565b6000620006208262000627565b9050919050565b600073ffffffffffffffffffffffffffffffffffffffff82169050919050565b6000819050919050565b60005b838110156200067157808201518184015260208101905062000654565b8381111562000681576000848401525b50505050565b60006002820490506001821680620006a057607f821691505b60208210811415620006b757620006b662000722565b5b50919050565b620006c88262000780565b810181811067ffffffffffffffff82111715620006ea57620006e962000751565b5b80604052505050565b7f4e487b7100000000000000000000000000000000000000000000000000000000600052601160045260246000fd5b7f4e487b7100000000000000000000000000000000000000000000000000000000600052602260045260246000fd5b7f4e487b7100000000000000000000000000000000000000000000000000000000600052604160045260246000fd5b6000601f19601f8301169050919050565b7f45524332303a206d696e7420746f20746865207a65726f206164647265737300600082015250565b620007c58162000613565b8114620007d157600080fd5b50565b620007df8162000647565b8114620007eb57600080fd5b50565b6080516117f66200081160003960008181610690015261070301526117f66000f3fe608060405234801561001057600080fd5b50600436106101005760003560e01c80638da5cb5b11610097578063be040fb011610066578063be040fb0146102d9578063c6bc5182146102e3578063db2e1eed14610301578063dd62ed3e1461031f57610100565b80638da5cb5b1461023d57806395d89b411461025b578063a457c2d714610279578063a9059cbb146102a957610100565b8063313ce567116100d3578063313ce567146101a157806339509351146101bf5780636588103b146101ef57806370a082311461020d57610100565b806306fdde0314610105578063095ea7b31461012357806318160ddd1461015357806323b872dd14610171575b600080fd5b61010d61034f565b60405161011a91906111aa565b60405180910390f35b61013d60048036038101906101389190610f51565b6103e1565b60405161014a919061118f565b60405180910390f35b61015b610404565b60405161016891906112ec565b60405180910390f35b61018b60048036038101906101869190610f02565b61040e565b604051610198919061118f565b60405180910390f35b6101a961043d565b6040516101b69190611307565b60405180910390f35b6101d960048036038101906101d49190610f51565b610446565b6040516101e6919061118f565b60405180910390f35b6101f761047d565b604051610204919061113d565b60405180910390f35b61022760048036038101906102229190610e9d565b6104a3565b60405161023491906112ec565b60405180910390f35b6102456104eb565b604051610252919061113d565b60405180910390f35b610263610511565b60405161027091906111aa565b60405180910390f35b610293600480360381019061028e9190610f51565b6105a3565b6040516102a0919061118f565b60405180910390f35b6102c360048036038101906102be9190610f51565b61061a565b6040516102d0919061118f565b60405180910390f35b6102e161063d565b005b6102eb610701565b6040516102f891906112ec565b60405180910390f35b610309610725565b60405161031691906112ec565b60405180910390f35b61033960048036038101906103349190610ec6565b61072b565b60405161034691906112ec565b60405180910390f35b60606003805461035e90611450565b80601f016020809104026020016040519081016040528092919081815260200182805461038a90611450565b80156103d75780601f106103ac576101008083540402835291602001916103d7565b820191906000526020600020905b8154815290600101906020018083116103ba57829003601f168201915b5050505050905090565b6000806103ec6107b2565b90506103f98185856107ba565b600191505092915050565b6000600254905090565b6000806104196107b2565b9050610426858285610985565b610431858585610a11565b60019150509392505050565b60006012905090565b6000806104516107b2565b9050610472818585610463858961072b565b61046d919061133e565b6107ba565b600191505092915050565b600560009054906101000a900473ffffffffffffffffffffffffffffffffffffffff1681565b60008060008373ffffffffffffffffffffffffffffffffffffffff1673ffffffffffffffffffffffffffffffffffffffff168152602001908152602001600020549050919050565b600660009054906101000a900473ffffffffffffffffffffffffffffffffffffffff1681565b60606004805461052090611450565b80601f016020809104026020016040519081016040528092919081815260200182805461054c90611450565b80156105995780601f1061056e57610100808354040283529160200191610599565b820191906000526020600020905b81548152906001019060200180831161057c57829003601f168201915b5050505050905090565b6000806105ae6107b2565b905060006105bc828661072b565b905083811015610601576040517f08c379a00000000000000000000000000000000000000000000000000000000081526004016105f8906112cc565b60405180910390fd5b61060e82868684036107ba565b60019250505092915050565b6000806106256107b2565b9050610632818585610a11565b600191505092915050565b61064e33610649610404565b610c92565b600560009054906101000a900473ffffffffffffffffffffffffffffffffffffffff1673ffffffffffffffffffffffffffffffffffffffff166323b872dd30337f00000000000000000000000000000000000000000000000000000000000000006040518463ffffffff1660e01b81526004016106cd93929190611158565b600060405180830381600087803b1580156106e757600080fd5b505af11580156106fb573d6000803e3d6000fd5b50505050565b7f000000000000000000000000000000000000000000000000000000000000000081565b60075481565b6000600160008473ffffffffffffffffffffffffffffffffffffffff1673ffffffffffffffffffffffffffffffffffffffff16815260200190815260200160002060008373ffffffffffffffffffffffffffffffffffffffff1673ffffffffffffffffffffffffffffffffffffffff16815260200190815260200160002054905092915050565b600033905090565b600073ffffffffffffffffffffffffffffffffffffffff168373ffffffffffffffffffffffffffffffffffffffff16141561082a576040517f08c379a0000000000000000000000000000000000000000000000000000000008152600401610821906112ac565b60405180910390fd5b600073ffffffffffffffffffffffffffffffffffffffff168273ffffffffffffffffffffffffffffffffffffffff16141561089a576040517f08c379a00000000000000000000000000000000000000000000000000000000081526004016108919061120c565b60405180910390fd5b80600160008573ffffffffffffffffffffffffffffffffffffffff1673ffffffffffffffffffffffffffffffffffffffff16815260200190815260200160002060008473ffffffffffffffffffffffffffffffffffffffff1673ffffffffffffffffffffffffffffffffffffffff168152602001908152602001600020819055508173ffffffffffffffffffffffffffffffffffffffff168373ffffffffffffffffffffffffffffffffffffffff167f8c5be1e5ebec7d5bd14f71427d1e84f3dd0314c0f7b2291e5b200ac8c7c3b9258360405161097891906112ec565b60405180910390a3505050565b6000610991848461072b565b90507fffffffffffffffffffffffffffffffffffffffffffffffffffffffffffffffff8114610a0b57818110156109fd576040517f08c379a00000000000000000000000000000000000000000000000000000000081526004016109f49061122c565b60405180910390fd5b610a0a84848484036107ba565b5b50505050565b600073ffffffffffffffffffffffffffffffffffffffff168373ffffffffffffffffffffffffffffffffffffffff161415610a81576040517f08c379a0000000000000000000000000000000000000000000000000000000008152600401610a789061128c565b60405180910390fd5b600073ffffffffffffffffffffffffffffffffffffffff168273ffffffffffffffffffffffffffffffffffffffff161415610af1576040517f08c379a0000000000000000000000000000000000000000000000000000000008152600401610ae8906111cc565b60405180910390fd5b610afc838383610e69565b60008060008573ffffffffffffffffffffffffffffffffffffffff1673ffffffffffffffffffffffffffffffffffffffff16815260200190815260200160002054905081811015610b82576040517f08c379a0000000000000000000000000000000000000000000000000000000008152600401610b799061124c565b60405180910390fd5b8181036000808673ffffffffffffffffffffffffffffffffffffffff1673ffffffffffffffffffffffffffffffffffffffff16815260200190815260200160002081905550816000808573ffffffffffffffffffffffffffffffffffffffff1673ffffffffffffffffffffffffffffffffffffffff1681526020019081526020016000206000828254610c15919061133e565b925050819055508273ffffffffffffffffffffffffffffffffffffffff168473ffffffffffffffffffffffffffffffffffffffff167fddf252ad1be2c89b69c2b068fc378daa952ba7f163c4a11628f55a4df523b3ef84604051610c7991906112ec565b60405180910390a3610c8c848484610e6e565b50505050565b600073ffffffffffffffffffffffffffffffffffffffff168273ffffffffffffffffffffffffffffffffffffffff161415610d02576040517f08c379a0000000000000000000000000000000000000000000000000000000008152600401610cf99061126c565b60405180910390fd5b610d0e82600083610e69565b60008060008473ffffffffffffffffffffffffffffffffffffffff1673ffffffffffffffffffffffffffffffffffffffff16815260200190815260200160002054905081811015610d94576040517f08c379a0000000000000000000000000000000000000000000000000000000008152600401610d8b906111ec565b60405180910390fd5b8181036000808573ffffffffffffffffffffffffffffffffffffffff1673ffffffffffffffffffffffffffffffffffffffff168152602001908152602001600020819055508160026000828254610deb9190611394565b92505081905550600073ffffffffffffffffffffffffffffffffffffffff168373ffffffffffffffffffffffffffffffffffffffff167fddf252ad1be2c89b69c2b068fc378daa952ba7f163c4a11628f55a4df523b3ef84604051610e5091906112ec565b60405180910390a3610e6483600084610e6e565b505050565b505050565b505050565b600081359050610e8281611792565b92915050565b600081359050610e97816117a9565b92915050565b600060208284031215610eaf57600080fd5b6000610ebd84828501610e73565b91505092915050565b60008060408385031215610ed957600080fd5b6000610ee785828601610e73565b9250506020610ef885828601610e73565b9150509250929050565b600080600060608486031215610f1757600080fd5b6000610f2586828701610e73565b9350506020610f3686828701610e73565b9250506040610f4786828701610e88565b9150509250925092565b60008060408385031215610f6457600080fd5b6000610f7285828601610e73565b9250506020610f8385828601610e88565b9150509250929050565b610f96816113c8565b82525050565b610fa5816113da565b82525050565b6000610fb682611322565b610fc0818561132d565b9350610fd081856020860161141d565b610fd9816114e0565b840191505092915050565b6000610ff160238361132d565b9150610ffc826114f1565b604082019050919050565b600061101460228361132d565b915061101f82611540565b604082019050919050565b600061103760228361132d565b91506110428261158f565b604082019050919050565b600061105a601d8361132d565b9150611065826115de565b602082019050919050565b600061107d60268361132d565b915061108882611607565b604082019050919050565b60006110a060218361132d565b91506110ab82611656565b604082019050919050565b60006110c360258361132d565b91506110ce826116a5565b604082019050919050565b60006110e660248361132d565b91506110f1826116f4565b604082019050919050565b600061110960258361132d565b915061111482611743565b604082019050919050565b61112881611406565b82525050565b61113781611410565b82525050565b60006020820190506111526000830184610f8d565b92915050565b600060608201905061116d6000830186610f8d565b61117a6020830185610f8d565b611187604083018461111f565b949350505050565b60006020820190506111a46000830184610f9c565b92915050565b600060208201905081810360008301526111c48184610fab565b905092915050565b600060208201905081810360008301526111e581610fe4565b9050919050565b6000602082019050818103600083015261120581611007565b9050919050565b600060208201905081810360008301526112258161102a565b9050919050565b600060208201905081810360008301526112458161104d565b9050919050565b6000602082019050818103600083015261126581611070565b9050919050565b6000602082019050818103600083015261128581611093565b9050919050565b600060208201905081810360008301526112a5816110b6565b9050919050565b600060208201905081810360008301526112c5816110d9565b9050919050565b600060208201905081810360008301526112e5816110fc565b9050919050565b6000602082019050611301600083018461111f565b92915050565b600060208201905061131c600083018461112e565b92915050565b600081519050919050565b600082825260208201905092915050565b600061134982611406565b915061135483611406565b9250827fffffffffffffffffffffffffffffffffffffffffffffffffffffffffffffffff0382111561138957611388611482565b5b828201905092915050565b600061139f82611406565b91506113aa83611406565b9250828210156113bd576113bc611482565b5b828203905092915050565b60006113d3826113e6565b9050919050565b60008115159050919050565b600073ffffffffffffffffffffffffffffffffffffffff82169050919050565b6000819050919050565b600060ff82169050919050565b60005b8381101561143b578082015181840152602081019050611420565b8381111561144a576000848401525b50505050565b6000600282049050600182168061146857607f821691505b6020821081141561147c5761147b6114b1565b5b50919050565b7f4e487b7100000000000000000000000000000000000000000000000000000000600052601160045260246000fd5b7f4e487b7100000000000000000000000000000000000000000000000000000000600052602260045260246000fd5b6000601f19601f8301169050919050565b7f45524332303a207472616e7366657220746f20746865207a65726f206164647260008201527f6573730000000000000000000000000000000000000000000000000000000000602082015250565b7f45524332303a206275726e20616d6f756e7420657863656564732062616c616e60008201527f6365000000000000000000000000000000000000000000000000000000000000602082015250565b7f45524332303a20617070726f766520746f20746865207a65726f20616464726560008201527f7373000000000000000000000000000000000000000000000000000000000000602082015250565b7f45524332303a20696e73756666696369656e7420616c6c6f77616e6365000000600082015250565b7f45524332303a207472616e7366657220616d6f756e742065786365656473206260008201527f616c616e63650000000000000000000000000000000000000000000000000000602082015250565b7f45524332303a206275726e2066726f6d20746865207a65726f2061646472657360008201527f7300000000000000000000000000000000000000000000000000000000000000602082015250565b7f45524332303a207472616e736665722066726f6d20746865207a65726f20616460008201527f6472657373000000000000000000000000000000000000000000000000000000602082015250565b7f45524332303a20617070726f76652066726f6d20746865207a65726f2061646460008201527f7265737300000000000000000000000000000000000000000000000000000000602082015250565b7f45524332303a2064656372656173656420616c6c6f77616e63652062656c6f7760008201527f207a65726f000000000000000000000000000000000000000000000000000000602082015250565b61179b816113c8565b81146117a657600080fd5b50565b6117b281611406565b81146117bd57600080fd5b5056fea26469706673582212208caedd9f4fc9f74183d251aa9c43831f1b28b4674e69c7116e06985a7bdeff4364736f6c63430008040033a2646970667358221220919d17fdef790676146ede0ff7c4bcca920b6b65a82bf49fd781d257e5ce98b764736f6c63430008040033",
  "linkReferences": {},
  "deployedLinkReferences": {}
}