{
  "_format": "hh-sol-artifact-1",
  "contractName": "MarketPlace",
  "sourceName": "contracts/MarketPlace.sol",
  "abi": [
    {
      "inputs": [],
      "stateMutability": "nonpayable",
      "type": "constructor"
    },
    {
      "inputs": [
        {
          "internalType": "address",
          "name": "_collection",
          "type": "address"
        },
        {
          "internalType": "address",
          "name": "_creator",
          "type": "address"
        }
      ],
      "name": "addCollection",
      "outputs": [],
      "stateMutability": "nonpayable",
      "type": "function"
    },
    {
      "inputs": [],
      "name": "admin",
      "outputs": [
        {
          "internalType": "address",
          "name": "",
          "type": "address"
        }
      ],
      "stateMutability": "view",
      "type": "function"
    },
    {
      "inputs": [
        {
          "internalType": "address",
          "name": "_collection",
          "type": "address"
        },
        {
          "internalType": "uint256",
          "name": "_tokenId",
          "type": "uint256"
        }
      ],
      "name": "buyTokenUsingETH",
      "outputs": [],
      "stateMutability": "payable",
      "type": "function"
    },
    {
      "inputs": [
        {
          "internalType": "address",
          "name": "_collection",
          "type": "address"
        },
        {
          "internalType": "uint256",
          "name": "_tokenId",
          "type": "uint256"
        }
      ],
      "name": "cancelAskOrder",
      "outputs": [],
      "stateMutability": "nonpayable",
      "type": "function"
    },
    {
      "inputs": [
        {
          "internalType": "address",
          "name": "_collection",
          "type": "address"
        }
      ],
      "name": "closeCollectionForTradingAndListing",
      "outputs": [],
      "stateMutability": "nonpayable",
      "type": "function"
    },
    {
      "inputs": [
        {
          "internalType": "address",
          "name": "_collection",
          "type": "address"
        },
        {
          "internalType": "uint256",
          "name": "_tokenId",
          "type": "uint256"
        },
        {
          "internalType": "uint256",
          "name": "_askPrice",
          "type": "uint256"
        }
      ],
      "name": "createAskOrder",
      "outputs": [],
      "stateMutability": "nonpayable",
      "type": "function"
    },
    {
      "inputs": [
        {
          "internalType": "address",
          "name": "_collection",
          "type": "address"
        },
        {
          "internalType": "uint256",
          "name": "_tokenId",
          "type": "uint256"
        },
        {
          "internalType": "uint256",
          "name": "_newPrice",
          "type": "uint256"
        }
      ],
      "name": "modifyAskOrder",
      "outputs": [],
      "stateMutability": "nonpayable",
      "type": "function"
    },
    {
      "inputs": [
        {
          "internalType": "address",
          "name": "_collection",
          "type": "address"
        },
        {
          "internalType": "address",
          "name": "_creator",
          "type": "address"
        }
      ],
      "name": "modifyCollection",
      "outputs": [],
      "stateMutability": "nonpayable",
      "type": "function"
    },
    {
      "inputs": [
        {
          "internalType": "address",
          "name": "collection",
          "type": "address"
        },
        {
          "internalType": "uint256",
          "name": "cursor",
          "type": "uint256"
        },
        {
          "internalType": "uint256",
          "name": "size",
          "type": "uint256"
        }
      ],
      "name": "viewAsksByCollection",
      "outputs": [
        {
          "internalType": "uint256[]",
          "name": "tokenIds",
          "type": "uint256[]"
        },
        {
          "components": [
            {
              "internalType": "address",
              "name": "seller",
              "type": "address"
            },
            {
              "internalType": "uint256",
              "name": "price",
              "type": "uint256"
            }
          ],
          "internalType": "struct MarketPlace.Ask[]",
          "name": "askInfo",
          "type": "tuple[]"
        },
        {
          "internalType": "uint256",
          "name": "",
          "type": "uint256"
        }
      ],
      "stateMutability": "view",
      "type": "function"
    },
    {
      "inputs": [
        {
          "internalType": "address",
          "name": "collection",
          "type": "address"
        },
        {
          "internalType": "address",
          "name": "seller",
          "type": "address"
        },
        {
          "internalType": "uint256",
          "name": "cursor",
          "type": "uint256"
        },
        {
          "internalType": "uint256",
          "name": "size",
          "type": "uint256"
        }
      ],
      "name": "viewAsksByCollectionAndSeller",
      "outputs": [
        {
          "internalType": "uint256[]",
          "name": "tokenIds",
          "type": "uint256[]"
        },
        {
          "components": [
            {
              "internalType": "address",
              "name": "seller",
              "type": "address"
            },
            {
              "internalType": "uint256",
              "name": "price",
              "type": "uint256"
            }
          ],
          "internalType": "struct MarketPlace.Ask[]",
          "name": "askInfo",
          "type": "tuple[]"
        },
        {
          "internalType": "uint256",
          "name": "",
          "type": "uint256"
        }
      ],
      "stateMutability": "view",
      "type": "function"
    },
    {
      "inputs": [
        {
          "internalType": "address",
          "name": "collection",
          "type": "address"
        },
        {
          "internalType": "uint256[]",
          "name": "tokenIds",
          "type": "uint256[]"
        }
      ],
      "name": "viewAsksByCollectionAndTokenIds",
      "outputs": [
        {
          "internalType": "bool[]",
          "name": "statuses",
          "type": "bool[]"
        },
        {
          "components": [
            {
              "internalType": "address",
              "name": "seller",
              "type": "address"
            },
            {
              "internalType": "uint256",
              "name": "price",
              "type": "uint256"
            }
          ],
          "internalType": "struct MarketPlace.Ask[]",
          "name": "askInfo",
          "type": "tuple[]"
        }
      ],
      "stateMutability": "view",
      "type": "function"
    },
    {
      "inputs": [
        {
          "internalType": "uint256",
          "name": "cursor",
          "type": "uint256"
        },
        {
          "internalType": "uint256",
          "name": "size",
          "type": "uint256"
        }
      ],
      "name": "viewCollections",
      "outputs": [
        {
          "internalType": "address[]",
          "name": "collectionAddresses",
          "type": "address[]"
        },
        {
          "components": [
            {
              "internalType": "enum MarketPlace.Status",
              "name": "status",
              "type": "uint8"
            },
            {
              "internalType": "address",
              "name": "creatorAddress",
              "type": "address"
            }
          ],
          "internalType": "struct MarketPlace.Collection[]",
          "name": "collectionDetails",
          "type": "tuple[]"
        },
        {
          "internalType": "uint256",
          "name": "",
          "type": "uint256"
        }
      ],
      "stateMutability": "view",
      "type": "function"
    }
  ],
  "bytecode": "0x608060405234801561001057600080fd5b50600160008190555033600160006101000a81548173ffffffffffffffffffffffffffffffffffffffff021916908373ffffffffffffffffffffffffffffffffffffffff160217905550613764806100696000396000f3fe6080604052600436106100a75760003560e01c806395f420981161006457806395f42098146101d65780639b2adcdc146101ff578063d286ef7414610228578063daa7716a14610267578063ddf9ba6f14610290578063f851a440146102b9576100a7565b806321506a18146100ac57806322f67b6d146100c857806351c383ea14610106578063803b64a11461014557806384a408641461016e578063909b8a37146101ad575b600080fd5b6100c660048036038101906100c19190612b08565b6102e4565b005b3480156100d457600080fd5b506100ef60048036038101906100ea9190612ab0565b610349565b6040516100fd9291906130ca565b60405180910390f35b34801561011257600080fd5b5061012d60048036038101906101289190612b93565b6106dc565b60405161013c93929190613085565b60405180910390f35b34801561015157600080fd5b5061016c60048036038101906101679190612b44565b610a7e565b005b34801561017a57600080fd5b5061019560048036038101906101909190612b44565b610cf8565b6040516101a493929190613101565b60405180910390f35b3480156101b957600080fd5b506101d460048036038101906101cf9190612a11565b6110b9565b005b3480156101e257600080fd5b506101fd60048036038101906101f89190612b08565b6112f9565b005b34801561020b57600080fd5b5061022660048036038101906102219190612b44565b6115f2565b005b34801561023457600080fd5b5061024f600480360381019061024a9190612a4d565b611874565b60405161025e93929190613101565b60405180910390f35b34801561027357600080fd5b5061028e60048036038101906102899190612a11565b611ced565b005b34801561029c57600080fd5b506102b760048036038101906102b291906129e8565b611f17565b005b3480156102c557600080fd5b506102ce6120a3565b6040516102db9190613033565b60405180910390f35b6002600054141561032a576040517f08c379a000000000000000000000000000000000000000000000000000000000815260040161032190613266565b60405180910390fd5b600260008190555061033d8282346120c9565b60016000819055505050565b60608060008484905090508067ffffffffffffffff811115610394577f4e487b7100000000000000000000000000000000000000000000000000000000600052604160045260246000fd5b6040519080825280602002602001820160405280156103c25781602001602082028036833780820191505090505b5092508067ffffffffffffffff811115610405577f4e487b7100000000000000000000000000000000000000000000000000000000600052604160045260246000fd5b60405190808252806020026020018201604052801561043e57816020015b61042b6128dc565b8152602001906001900390816104235790505b50915060005b818110156106d2576104dc868683818110610488577f4e487b7100000000000000000000000000000000000000000000000000000000600052603260045260246000fd5b90506020020135600560008a73ffffffffffffffffffffffffffffffffffffffff1673ffffffffffffffffffffffffffffffffffffffff16815260200190815260200160002061252590919063ffffffff16565b1561053357600184828151811061051c577f4e487b7100000000000000000000000000000000000000000000000000000000600052603260045260246000fd5b602002602001019015159081151581525050610581565b600084828151811061056e577f4e487b7100000000000000000000000000000000000000000000000000000000600052603260045260246000fd5b6020026020010190151590811515815250505b600460008873ffffffffffffffffffffffffffffffffffffffff1673ffffffffffffffffffffffffffffffffffffffff16815260200190815260200160002060008787848181106105fb577f4e487b7100000000000000000000000000000000000000000000000000000000600052603260045260246000fd5b9050602002013581526020019081526020016000206040518060400160405290816000820160009054906101000a900473ffffffffffffffffffffffffffffffffffffffff1673ffffffffffffffffffffffffffffffffffffffff1673ffffffffffffffffffffffffffffffffffffffff1681526020016001820154815250508382815181106106b4577f4e487b7100000000000000000000000000000000000000000000000000000000600052603260045260246000fd5b602002602001018190525080806106ca906134ab565b915050610444565b5050935093915050565b606080600080849050856106f0600261253f565b6106fa919061340a565b811115610719578561070c600261253f565b610716919061340a565b90505b8067ffffffffffffffff811115610759577f4e487b7100000000000000000000000000000000000000000000000000000000600052604160045260246000fd5b6040519080825280602002602001820160405280156107875781602001602082028036833780820191505090505b5093508067ffffffffffffffff8111156107ca577f4e487b7100000000000000000000000000000000000000000000000000000000600052604160045260246000fd5b60405190808252806020026020018201604052801561080357816020015b6107f061290c565b8152602001906001900390816107e85790505b50925060005b81811015610a6157610830818861082091906133b4565b600261255490919063ffffffff16565b858281518110610869577f4e487b7100000000000000000000000000000000000000000000000000000000600052603260045260246000fd5b602002602001019073ffffffffffffffffffffffffffffffffffffffff16908173ffffffffffffffffffffffffffffffffffffffff1681525050600660008683815181106108e0577f4e487b7100000000000000000000000000000000000000000000000000000000600052603260045260246000fd5b602002602001015173ffffffffffffffffffffffffffffffffffffffff1673ffffffffffffffffffffffffffffffffffffffff1681526020019081526020016000206040518060400160405290816000820160009054906101000a900460ff166002811115610978577f4e487b7100000000000000000000000000000000000000000000000000000000600052602160045260246000fd5b60028111156109b0577f4e487b7100000000000000000000000000000000000000000000000000000000600052602160045260246000fd5b81526020016000820160019054906101000a900473ffffffffffffffffffffffffffffffffffffffff1673ffffffffffffffffffffffffffffffffffffffff1673ffffffffffffffffffffffffffffffffffffffff1681525050848281518110610a43577f4e487b7100000000000000000000000000000000000000000000000000000000600052603260045260246000fd5b60200260200101819052508080610a59906134ab565b915050610809565b5083838288610a7091906133b4565b935093509350509250925092565b60026000541415610ac4576040517f08c379a0000000000000000000000000000000000000000000000000000000008152600401610abb90613266565b60405180910390fd5b60026000819055508273ffffffffffffffffffffffffffffffffffffffff166323b872dd3330856040518463ffffffff1660e01b8152600401610b099392919061304e565b600060405180830381600087803b158015610b2357600080fd5b505af1158015610b37573d6000803e3d6000fd5b50505050610bc982600760003373ffffffffffffffffffffffffffffffffffffffff1673ffffffffffffffffffffffffffffffffffffffff16815260200190815260200160002060008673ffffffffffffffffffffffffffffffffffffffff1673ffffffffffffffffffffffffffffffffffffffff16815260200190815260200160002061256e90919063ffffffff16565b5060405180604001604052803373ffffffffffffffffffffffffffffffffffffffff16815260200182815250600460008573ffffffffffffffffffffffffffffffffffffffff1673ffffffffffffffffffffffffffffffffffffffff168152602001908152602001600020600084815260200190815260200160002060008201518160000160006101000a81548173ffffffffffffffffffffffffffffffffffffffff021916908373ffffffffffffffffffffffffffffffffffffffff16021790555060208201518160010155905050610cea82600560008673ffffffffffffffffffffffffffffffffffffffff1673ffffffffffffffffffffffffffffffffffffffff16815260200190815260200160002061256e90919063ffffffff16565b506001600081905550505050565b60608060008084905085610d49600560008a73ffffffffffffffffffffffffffffffffffffffff1673ffffffffffffffffffffffffffffffffffffffff168152602001908152602001600020612588565b610d53919061340a565b811115610daf5785610da2600560008a73ffffffffffffffffffffffffffffffffffffffff1673ffffffffffffffffffffffffffffffffffffffff168152602001908152602001600020612588565b610dac919061340a565b90505b8067ffffffffffffffff811115610def577f4e487b7100000000000000000000000000000000000000000000000000000000600052604160045260246000fd5b604051908082528060200260200182016040528015610e1d5781602001602082028036833780820191505090505b5093508067ffffffffffffffff811115610e60577f4e487b7100000000000000000000000000000000000000000000000000000000600052604160045260246000fd5b604051908082528060200260200182016040528015610e9957816020015b610e866128dc565b815260200190600190039081610e7e5790505b50925060005b8181101561109a57610f038188610eb691906133b4565b600560008b73ffffffffffffffffffffffffffffffffffffffff1673ffffffffffffffffffffffffffffffffffffffff16815260200190815260200160002061259d90919063ffffffff16565b858281518110610f3c577f4e487b7100000000000000000000000000000000000000000000000000000000600052603260045260246000fd5b602002602001018181525050600460008973ffffffffffffffffffffffffffffffffffffffff1673ffffffffffffffffffffffffffffffffffffffff1681526020019081526020016000206000868381518110610fc2577f4e487b7100000000000000000000000000000000000000000000000000000000600052603260045260246000fd5b602002602001015181526020019081526020016000206040518060400160405290816000820160009054906101000a900473ffffffffffffffffffffffffffffffffffffffff1673ffffffffffffffffffffffffffffffffffffffff1673ffffffffffffffffffffffffffffffffffffffff16815260200160018201548152505084828151811061107c577f4e487b7100000000000000000000000000000000000000000000000000000000600052603260045260246000fd5b60200260200101819052508080611092906134ab565b915050610e9f565b50838382886110a991906133b4565b9350935093505093509350939050565b600160009054906101000a900473ffffffffffffffffffffffffffffffffffffffff1673ffffffffffffffffffffffffffffffffffffffff163373ffffffffffffffffffffffffffffffffffffffff1614611149576040517f08c379a0000000000000000000000000000000000000000000000000000000008152600401611140906131a6565b60405180910390fd5b61115d8260026125b790919063ffffffff16565b1561119d576040517f08c379a000000000000000000000000000000000000000000000000000000000815260040161119490613166565b60405180910390fd5b6111b18260026125e790919063ffffffff16565b506040518060400160405280600160028111156111f7577f4e487b7100000000000000000000000000000000000000000000000000000000600052602160045260246000fd5b81526020018273ffffffffffffffffffffffffffffffffffffffff16815250600660008473ffffffffffffffffffffffffffffffffffffffff1673ffffffffffffffffffffffffffffffffffffffff16815260200190815260200160002060008201518160000160006101000a81548160ff021916908360028111156112a6577f4e487b7100000000000000000000000000000000000000000000000000000000600052602160045260246000fd5b021790555060208201518160000160016101000a81548173ffffffffffffffffffffffffffffffffffffffff021916908373ffffffffffffffffffffffffffffffffffffffff1602179055509050505050565b6002600054141561133f576040517f08c379a000000000000000000000000000000000000000000000000000000000815260040161133690613266565b60405180910390fd5b60026000819055506113d581600760003373ffffffffffffffffffffffffffffffffffffffff1673ffffffffffffffffffffffffffffffffffffffff16815260200190815260200160002060008573ffffffffffffffffffffffffffffffffffffffff1673ffffffffffffffffffffffffffffffffffffffff16815260200190815260200160002061252590919063ffffffff16565b611414576040517f08c379a000000000000000000000000000000000000000000000000000000000815260040161140b906131c6565b60405180910390fd5b6114a281600760003373ffffffffffffffffffffffffffffffffffffffff1673ffffffffffffffffffffffffffffffffffffffff16815260200190815260200160002060008573ffffffffffffffffffffffffffffffffffffffff1673ffffffffffffffffffffffffffffffffffffffff16815260200190815260200160002061261790919063ffffffff16565b50600460008373ffffffffffffffffffffffffffffffffffffffff1673ffffffffffffffffffffffffffffffffffffffff1681526020019081526020016000206000828152602001908152602001600020600080820160006101000a81549073ffffffffffffffffffffffffffffffffffffffff02191690556001820160009055505061157681600560008573ffffffffffffffffffffffffffffffffffffffff1673ffffffffffffffffffffffffffffffffffffffff16815260200190815260200160002061261790919063ffffffff16565b508173ffffffffffffffffffffffffffffffffffffffff166323b872dd3033846040518463ffffffff1660e01b81526004016115b49392919061304e565b600060405180830381600087803b1580156115ce57600080fd5b505af11580156115e2573d6000803e3d6000fd5b5050505060016000819055505050565b60026000541415611638576040517f08c379a000000000000000000000000000000000000000000000000000000000815260040161162f90613266565b60405180910390fd5b60026000819055506001600281111561167a577f4e487b7100000000000000000000000000000000000000000000000000000000600052602160045260246000fd5b600660008573ffffffffffffffffffffffffffffffffffffffff1673ffffffffffffffffffffffffffffffffffffffff16815260200190815260200160002060000160009054906101000a900460ff166002811115611702577f4e487b7100000000000000000000000000000000000000000000000000000000600052602160045260246000fd5b14611742576040517f08c379a000000000000000000000000000000000000000000000000000000000815260040161173990613206565b60405180910390fd5b6117d082600760003373ffffffffffffffffffffffffffffffffffffffff1673ffffffffffffffffffffffffffffffffffffffff16815260200190815260200160002060008673ffffffffffffffffffffffffffffffffffffffff1673ffffffffffffffffffffffffffffffffffffffff16815260200190815260200160002061252590919063ffffffff16565b61180f576040517f08c379a0000000000000000000000000000000000000000000000000000000008152600401611806906131c6565b60405180910390fd5b80600460008573ffffffffffffffffffffffffffffffffffffffff1673ffffffffffffffffffffffffffffffffffffffff1681526020019081526020016000206000848152602001908152602001600020600101819055506001600081905550505050565b60608060008084905085611902600760008a73ffffffffffffffffffffffffffffffffffffffff1673ffffffffffffffffffffffffffffffffffffffff16815260200190815260200160002060008b73ffffffffffffffffffffffffffffffffffffffff1673ffffffffffffffffffffffffffffffffffffffff168152602001908152602001600020612588565b61190c919061340a565b8111156119a55785611998600760008a73ffffffffffffffffffffffffffffffffffffffff1673ffffffffffffffffffffffffffffffffffffffff16815260200190815260200160002060008b73ffffffffffffffffffffffffffffffffffffffff1673ffffffffffffffffffffffffffffffffffffffff168152602001908152602001600020612588565b6119a2919061340a565b90505b8067ffffffffffffffff8111156119e5577f4e487b7100000000000000000000000000000000000000000000000000000000600052604160045260246000fd5b604051908082528060200260200182016040528015611a135781602001602082028036833780820191505090505b5093508067ffffffffffffffff811115611a56577f4e487b7100000000000000000000000000000000000000000000000000000000600052604160045260246000fd5b604051908082528060200260200182016040528015611a8f57816020015b611a7c6128dc565b815260200190600190039081611a745790505b50925060005b81811015611ccd57611b368188611aac91906133b4565b600760008b73ffffffffffffffffffffffffffffffffffffffff1673ffffffffffffffffffffffffffffffffffffffff16815260200190815260200160002060008c73ffffffffffffffffffffffffffffffffffffffff1673ffffffffffffffffffffffffffffffffffffffff16815260200190815260200160002061259d90919063ffffffff16565b858281518110611b6f577f4e487b7100000000000000000000000000000000000000000000000000000000600052603260045260246000fd5b602002602001018181525050600460008a73ffffffffffffffffffffffffffffffffffffffff1673ffffffffffffffffffffffffffffffffffffffff1681526020019081526020016000206000868381518110611bf5577f4e487b7100000000000000000000000000000000000000000000000000000000600052603260045260246000fd5b602002602001015181526020019081526020016000206040518060400160405290816000820160009054906101000a900473ffffffffffffffffffffffffffffffffffffffff1673ffffffffffffffffffffffffffffffffffffffff1673ffffffffffffffffffffffffffffffffffffffff168152602001600182015481525050848281518110611caf577f4e487b7100000000000000000000000000000000000000000000000000000000600052603260045260246000fd5b60200260200101819052508080611cc5906134ab565b915050611a95565b5083838288611cdc91906133b4565b935093509350509450945094915050565b600160009054906101000a900473ffffffffffffffffffffffffffffffffffffffff1673ffffffffffffffffffffffffffffffffffffffff163373ffffffffffffffffffffffffffffffffffffffff1614611d7d576040517f08c379a0000000000000000000000000000000000000000000000000000000008152600401611d74906131a6565b60405180910390fd5b611d918260026125b790919063ffffffff16565b611dd0576040517f08c379a0000000000000000000000000000000000000000000000000000000008152600401611dc7906131e6565b60405180910390fd5b604051806040016040528060016002811115611e15577f4e487b7100000000000000000000000000000000000000000000000000000000600052602160045260246000fd5b81526020018273ffffffffffffffffffffffffffffffffffffffff16815250600660008473ffffffffffffffffffffffffffffffffffffffff1673ffffffffffffffffffffffffffffffffffffffff16815260200190815260200160002060008201518160000160006101000a81548160ff02191690836002811115611ec4577f4e487b7100000000000000000000000000000000000000000000000000000000600052602160045260246000fd5b021790555060208201518160000160016101000a81548173ffffffffffffffffffffffffffffffffffffffff021916908373ffffffffffffffffffffffffffffffffffffffff1602179055509050505050565b600160009054906101000a900473ffffffffffffffffffffffffffffffffffffffff1673ffffffffffffffffffffffffffffffffffffffff163373ffffffffffffffffffffffffffffffffffffffff1614611fa7576040517f08c379a0000000000000000000000000000000000000000000000000000000008152600401611f9e906131a6565b60405180910390fd5b611fbb8160026125b790919063ffffffff16565b611ffa576040517f08c379a0000000000000000000000000000000000000000000000000000000008152600401611ff1906131e6565b60405180910390fd5b6002600660008373ffffffffffffffffffffffffffffffffffffffff1673ffffffffffffffffffffffffffffffffffffffff16815260200190815260200160002060000160006101000a81548160ff02191690836002811115612086577f4e487b7100000000000000000000000000000000000000000000000000000000600052602160045260246000fd5b021790555061209f81600261263190919063ffffffff16565b5050565b600160009054906101000a900473ffffffffffffffffffffffffffffffffffffffff1681565b61211a82600560008673ffffffffffffffffffffffffffffffffffffffff1673ffffffffffffffffffffffffffffffffffffffff16815260200190815260200160002061252590919063ffffffff16565b612159576040517f08c379a000000000000000000000000000000000000000000000000000000000815260040161215090613226565b60405180910390fd5b6000600460008573ffffffffffffffffffffffffffffffffffffffff1673ffffffffffffffffffffffffffffffffffffffff16815260200190815260200160002060008481526020019081526020016000206040518060400160405290816000820160009054906101000a900473ffffffffffffffffffffffffffffffffffffffff1673ffffffffffffffffffffffffffffffffffffffff1673ffffffffffffffffffffffffffffffffffffffff16815260200160018201548152505090508060200151821461225e576040517f08c379a000000000000000000000000000000000000000000000000000000000815260040161225590613186565b60405180910390fd5b806000015173ffffffffffffffffffffffffffffffffffffffff163373ffffffffffffffffffffffffffffffffffffffff1614156122d1576040517f08c379a00000000000000000000000000000000000000000000000000000000081526004016122c890613146565b60405180910390fd5b6123638360076000846000015173ffffffffffffffffffffffffffffffffffffffff1673ffffffffffffffffffffffffffffffffffffffff16815260200190815260200160002060008773ffffffffffffffffffffffffffffffffffffffff1673ffffffffffffffffffffffffffffffffffffffff16815260200190815260200160002061261790919063ffffffff16565b50600460008573ffffffffffffffffffffffffffffffffffffffff1673ffffffffffffffffffffffffffffffffffffffff1681526020019081526020016000206000848152602001908152602001600020600080820160006101000a81549073ffffffffffffffffffffffffffffffffffffffff02191690556001820160009055505061243783600560008773ffffffffffffffffffffffffffffffffffffffff1673ffffffffffffffffffffffffffffffffffffffff16815260200190815260200160002061261790919063ffffffff16565b50806000015173ffffffffffffffffffffffffffffffffffffffff166108fc839081150290604051600060405180830381858888f193505050506124b0576040517f08c379a00000000000000000000000000000000000000000000000000000000081526004016124a790613246565b60405180910390fd5b8373ffffffffffffffffffffffffffffffffffffffff166342842e0e3033866040518463ffffffff1660e01b81526004016124ed9392919061304e565b600060405180830381600087803b15801561250757600080fd5b505af115801561251b573d6000803e3d6000fd5b5050505050505050565b6000612537836000018360001b612661565b905092915050565b600061254d82600001612684565b9050919050565b60006125638360000183612695565b60001c905092915050565b6000612580836000018360001b6126e6565b905092915050565b600061259682600001612684565b9050919050565b60006125ac8360000183612695565b60001c905092915050565b60006125df836000018373ffffffffffffffffffffffffffffffffffffffff1660001b612661565b905092915050565b600061260f836000018373ffffffffffffffffffffffffffffffffffffffff1660001b6126e6565b905092915050565b6000612629836000018360001b612756565b905092915050565b6000612659836000018373ffffffffffffffffffffffffffffffffffffffff1660001b612756565b905092915050565b600080836001016000848152602001908152602001600020541415905092915050565b600081600001805490509050919050565b60008260000182815481106126d3577f4e487b7100000000000000000000000000000000000000000000000000000000600052603260045260246000fd5b9060005260206000200154905092915050565b60006126f28383612661565b61274b578260000182908060018154018082558091505060019003906000526020600020016000909190919091505582600001805490508360010160008481526020019081526020016000208190555060019050612750565b600090505b92915050565b600080836001016000848152602001908152602001600020549050600081146128d0576000600182612788919061340a565b90506000600186600001805490506127a0919061340a565b905081811461285b5760008660000182815481106127e7577f4e487b7100000000000000000000000000000000000000000000000000000000600052603260045260246000fd5b9060005260206000200154905080876000018481548110612831577f4e487b7100000000000000000000000000000000000000000000000000000000600052603260045260246000fd5b90600052602060002001819055508387600101600083815260200190815260200160002081905550505b85600001805480612895577f4e487b7100000000000000000000000000000000000000000000000000000000600052603160045260246000fd5b6001900381819060005260206000200160009055905585600101600086815260200190815260200160002060009055600193505050506128d6565b60009150505b92915050565b6040518060400160405280600073ffffffffffffffffffffffffffffffffffffffff168152602001600081525090565b604051806040016040528060006002811115612951577f4e487b7100000000000000000000000000000000000000000000000000000000600052602160045260246000fd5b8152602001600073ffffffffffffffffffffffffffffffffffffffff1681525090565b60008135905061298381613700565b92915050565b60008083601f84011261299b57600080fd5b8235905067ffffffffffffffff8111156129b457600080fd5b6020830191508360208202830111156129cc57600080fd5b9250929050565b6000813590506129e281613717565b92915050565b6000602082840312156129fa57600080fd5b6000612a0884828501612974565b91505092915050565b60008060408385031215612a2457600080fd5b6000612a3285828601612974565b9250506020612a4385828601612974565b9150509250929050565b60008060008060808587031215612a6357600080fd5b6000612a7187828801612974565b9450506020612a8287828801612974565b9350506040612a93878288016129d3565b9250506060612aa4878288016129d3565b91505092959194509250565b600080600060408486031215612ac557600080fd5b6000612ad386828701612974565b935050602084013567ffffffffffffffff811115612af057600080fd5b612afc86828701612989565b92509250509250925092565b60008060408385031215612b1b57600080fd5b6000612b2985828601612974565b9250506020612b3a858286016129d3565b9150509250929050565b600080600060608486031215612b5957600080fd5b6000612b6786828701612974565b9350506020612b78868287016129d3565b9250506040612b89868287016129d3565b9150509250925092565b60008060408385031215612ba657600080fd5b6000612bb4858286016129d3565b9250506020612bc5858286016129d3565b9150509250929050565b6000612bdb8383612c47565b60208301905092915050565b6000612bf38383612e3b565b60208301905092915050565b6000612c0b8383612fb7565b60408301905092915050565b6000612c238383612fe6565b60408301905092915050565b6000612c3b8383613015565b60208301905092915050565b612c508161343e565b82525050565b612c5f8161343e565b82525050565b6000612c70826132d6565b612c7a818561334e565b9350612c8583613286565b8060005b83811015612cb6578151612c9d8882612bcf565b9750612ca88361330d565b925050600181019050612c89565b5085935050505092915050565b6000612cce826132e1565b612cd8818561335f565b9350612ce383613296565b8060005b83811015612d14578151612cfb8882612be7565b9750612d068361331a565b925050600181019050612ce7565b5085935050505092915050565b6000612d2c826132ec565b612d368185613370565b9350612d41836132a6565b8060005b83811015612d72578151612d598882612bff565b9750612d6483613327565b925050600181019050612d45565b5085935050505092915050565b6000612d8a826132f7565b612d948185613381565b9350612d9f836132b6565b8060005b83811015612dd0578151612db78882612c17565b9750612dc283613334565b925050600181019050612da3565b5085935050505092915050565b6000612de882613302565b612df28185613392565b9350612dfd836132c6565b8060005b83811015612e2e578151612e158882612c2f565b9750612e2083613341565b925050600181019050612e01565b5085935050505092915050565b612e4481613450565b82525050565b612e5381613499565b82525050565b6000612e666016836133a3565b9150612e7182613552565b602082019050919050565b6000612e896019836133a3565b9150612e948261357b565b602082019050919050565b6000612eac600f836133a3565b9150612eb7826135a4565b602082019050919050565b6000612ecf600a836133a3565b9150612eda826135cd565b602082019050919050565b6000612ef26013836133a3565b9150612efd826135f6565b602082019050919050565b6000612f156018836133a3565b9150612f208261361f565b602082019050919050565b6000612f38601d836133a3565b9150612f4382613648565b602082019050919050565b6000612f5b6015836133a3565b9150612f6682613671565b602082019050919050565b6000612f7e600f836133a3565b9150612f898261369a565b602082019050919050565b6000612fa1601f836133a3565b9150612fac826136c3565b602082019050919050565b604082016000820151612fcd6000850182612c47565b506020820151612fe06020850182613015565b50505050565b604082016000820151612ffc6000850182612e4a565b50602082015161300f6020850182612c47565b50505050565b61301e8161348f565b82525050565b61302d8161348f565b82525050565b60006020820190506130486000830184612c56565b92915050565b60006060820190506130636000830186612c56565b6130706020830185612c56565b61307d6040830184613024565b949350505050565b6000606082019050818103600083015261309f8186612c65565b905081810360208301526130b38185612d7f565b90506130c26040830184613024565b949350505050565b600060408201905081810360008301526130e48185612cc3565b905081810360208301526130f88184612d21565b90509392505050565b6000606082019050818103600083015261311b8186612ddd565b9050818103602083015261312f8185612d21565b905061313e6040830184613024565b949350505050565b6000602082019050818103600083015261315f81612e59565b9050919050565b6000602082019050818103600083015261317f81612e7c565b9050919050565b6000602082019050818103600083015261319f81612e9f565b9050919050565b600060208201905081810360008301526131bf81612ec2565b9050919050565b600060208201905081810360008301526131df81612ee5565b9050919050565b600060208201905081810360008301526131ff81612f08565b9050919050565b6000602082019050818103600083015261321f81612f2b565b9050919050565b6000602082019050818103600083015261323f81612f4e565b9050919050565b6000602082019050818103600083015261325f81612f71565b9050919050565b6000602082019050818103600083015261327f81612f94565b9050919050565b6000819050602082019050919050565b6000819050602082019050919050565b6000819050602082019050919050565b6000819050602082019050919050565b6000819050602082019050919050565b600081519050919050565b600081519050919050565b600081519050919050565b600081519050919050565b600081519050919050565b6000602082019050919050565b6000602082019050919050565b6000602082019050919050565b6000602082019050919050565b6000602082019050919050565b600082825260208201905092915050565b600082825260208201905092915050565b600082825260208201905092915050565b600082825260208201905092915050565b600082825260208201905092915050565b600082825260208201905092915050565b60006133bf8261348f565b91506133ca8361348f565b9250827fffffffffffffffffffffffffffffffffffffffffffffffffffffffffffffffff038211156133ff576133fe6134f4565b5b828201905092915050565b60006134158261348f565b91506134208361348f565b925082821015613433576134326134f4565b5b828203905092915050565b60006134498261346f565b9050919050565b60008115159050919050565b600081905061346a826136ec565b919050565b600073ffffffffffffffffffffffffffffffffffffffff82169050919050565b6000819050919050565b60006134a48261345c565b9050919050565b60006134b68261348f565b91507fffffffffffffffffffffffffffffffffffffffffffffffffffffffffffffffff8214156134e9576134e86134f4565b5b600182019050919050565b7f4e487b7100000000000000000000000000000000000000000000000000000000600052601160045260246000fd5b7f4e487b7100000000000000000000000000000000000000000000000000000000600052602160045260246000fd5b7f42757965722063616e6e6f742062652073656c6c657200000000000000000000600082015250565b7f436f6c6c656374696f6e20616c7265616479206c697374656400000000000000600082015250565b7f496e636f72726563742070726963650000000000000000000000000000000000600082015250565b7f4f6e6c792061646d696e00000000000000000000000000000000000000000000600082015250565b7f546f6b656e206973206e6f74206c697374656400000000000000000000000000600082015250565b7f436f6c6c656374696f6e206973206e6f74206c69737465640000000000000000600082015250565b7f436f6c6c656374696f6e206973206e6f7420666f72206c697374696e67000000600082015250565b7f546f6b656e206973206e6f7420666f722073616c650000000000000000000000600082015250565b7f7472616e73666572206661696c65640000000000000000000000000000000000600082015250565b7f5265656e7472616e637947756172643a207265656e7472616e742063616c6c00600082015250565b600381106136fd576136fc613523565b5b50565b6137098161343e565b811461371457600080fd5b50565b6137208161348f565b811461372b57600080fd5b5056fea264697066735822122017e4a39ef54be9f94ba11d0cbccf523d9c65e60ec4b7147ceacea2a7bcf417db64736f6c63430008040033",
  "linkReferences": {},
  "deployedLinkReferences": {}
}